{"abi":[{"type":"constructor","inputs":[{"name":"_name","type":"string","internalType":"string"},{"name":"_symbol","type":"string","internalType":"string"},{"name":"_owner","type":"address","internalType":"address"},{"name":"_controller","type":"address","internalType":"address"},{"name":"_registry","type":"address","internalType":"address"}],"stateMutability":"nonpayable"},{"type":"function","name":"CONTROLLER_ROLE","inputs":[],"outputs":[{"name":"","type":"bytes32","internalType":"bytes32"}],"stateMutability":"view"},{"type":"function","name":"DEFAULT_ADMIN_ROLE","inputs":[],"outputs":[{"name":"","type":"bytes32","internalType":"bytes32"}],"stateMutability":"view"},{"type":"function","name":"REG_D","inputs":[],"outputs":[{"name":"","type":"bytes32","internalType":"bytes32"}],"stateMutability":"view"},{"type":"function","name":"REG_S","inputs":[],"outputs":[{"name":"","type":"bytes32","internalType":"bytes32"}],"stateMutability":"view"},{"type":"function","name":"balanceOf","inputs":[{"name":"account","type":"address","internalType":"address"}],"outputs":[{"name":"","type":"uint256","internalType":"uint256"}],"stateMutability":"view"},{"type":"function","name":"balanceOfByPartition","inputs":[{"name":"","type":"address","internalType":"address"},{"name":"","type":"bytes32","internalType":"bytes32"}],"outputs":[{"name":"","type":"uint256","internalType":"uint256"}],"stateMutability":"view"},{"type":"function","name":"burnByPartition","inputs":[{"name":"partition","type":"bytes32","internalType":"bytes32"},{"name":"from","type":"address","internalType":"address"},{"name":"amount","type":"uint256","internalType":"uint256"},{"name":"data","type":"bytes","internalType":"bytes"}],"outputs":[],"stateMutability":"nonpayable"},{"type":"function","name":"complianceRegistry","inputs":[],"outputs":[{"name":"","type":"address","internalType":"contract IComplianceRegistry"}],"stateMutability":"view"},{"type":"function","name":"controller","inputs":[],"outputs":[{"name":"","type":"address","internalType":"address"}],"stateMutability":"view"},{"type":"function","name":"decimals","inputs":[],"outputs":[{"name":"","type":"uint8","internalType":"uint8"}],"stateMutability":"view"},{"type":"function","name":"forceTransfer","inputs":[{"name":"partition","type":"bytes32","internalType":"bytes32"},{"name":"from","type":"address","internalType":"address"},{"name":"to","type":"address","internalType":"address"},{"name":"amount","type":"uint256","internalType":"uint256"},{"name":"reason","type":"string","internalType":"string"}],"outputs":[],"stateMutability":"nonpayable"},{"type":"function","name":"getRoleAdmin","inputs":[{"name":"role","type":"bytes32","internalType":"bytes32"}],"outputs":[{"name":"","type":"bytes32","internalType":"bytes32"}],"stateMutability":"view"},{"type":"function","name":"grantRole","inputs":[{"name":"role","type":"bytes32","internalType":"bytes32"},{"name":"account","type":"address","internalType":"address"}],"outputs":[],"stateMutability":"nonpayable"},{"type":"function","name":"hasRole","inputs":[{"name":"role","type":"bytes32","internalType":"bytes32"},{"name":"account","type":"address","internalType":"address"}],"outputs":[{"name":"","type":"bool","internalType":"bool"}],"stateMutability":"view"},{"type":"function","name":"mintByPartition","inputs":[{"name":"partition","type":"bytes32","internalType":"bytes32"},{"name":"to","type":"address","internalType":"address"},{"name":"amount","type":"uint256","internalType":"uint256"},{"name":"data","type":"bytes","internalType":"bytes"}],"outputs":[],"stateMutability":"nonpayable"},{"type":"function","name":"name","inputs":[],"outputs":[{"name":"","type":"string","internalType":"string"}],"stateMutability":"view"},{"type":"function","name":"owner","inputs":[],"outputs":[{"name":"","type":"address","internalType":"address"}],"stateMutability":"view"},{"type":"function","name":"renounceOwnership","inputs":[],"outputs":[],"stateMutability":"nonpayable"},{"type":"function","name":"renounceRole","inputs":[{"name":"role","type":"bytes32","internalType":"bytes32"},{"name":"callerConfirmation","type":"address","internalType":"address"}],"outputs":[],"stateMutability":"nonpayable"},{"type":"function","name":"revokeRole","inputs":[{"name":"role","type":"bytes32","internalType":"bytes32"},{"name":"account","type":"address","internalType":"address"}],"outputs":[],"stateMutability":"nonpayable"},{"type":"function","name":"setController","inputs":[{"name":"newController","type":"address","internalType":"address"}],"outputs":[],"stateMutability":"nonpayable"},{"type":"function","name":"setRegistry","inputs":[{"name":"newRegistry","type":"address","internalType":"address"}],"outputs":[],"stateMutability":"nonpayable"},{"type":"function","name":"supportsInterface","inputs":[{"name":"interfaceId","type":"bytes4","internalType":"bytes4"}],"outputs":[{"name":"","type":"bool","internalType":"bool"}],"stateMutability":"view"},{"type":"function","name":"symbol","inputs":[],"outputs":[{"name":"","type":"string","internalType":"string"}],"stateMutability":"view"},{"type":"function","name":"totalSupply","inputs":[],"outputs":[{"name":"","type":"uint256","internalType":"uint256"}],"stateMutability":"view"},{"type":"function","name":"totalSupplyByPartition","inputs":[{"name":"","type":"bytes32","internalType":"bytes32"}],"outputs":[{"name":"","type":"uint256","internalType":"uint256"}],"stateMutability":"view"},{"type":"function","name":"transferByPartition","inputs":[{"name":"partition","type":"bytes32","internalType":"bytes32"},{"name":"to","type":"address","internalType":"address"},{"name":"amount","type":"uint256","internalType":"uint256"},{"name":"data","type":"bytes","internalType":"bytes"}],"outputs":[{"name":"","type":"bytes32","internalType":"bytes32"}],"stateMutability":"nonpayable"},{"type":"function","name":"transferOwnership","inputs":[{"name":"newOwner","type":"address","internalType":"address"}],"outputs":[],"stateMutability":"nonpayable"},{"type":"event","name":"ComplianceCheck","inputs":[{"name":"from","type":"address","indexed":true,"internalType":"address"},{"name":"to","type":"address","indexed":true,"internalType":"address"},{"name":"partition","type":"bytes32","indexed":true,"internalType":"bytes32"},{"name":"reason","type":"string","indexed":false,"internalType":"string"},{"name":"passed","type":"bool","indexed":false,"internalType":"bool"}],"anonymous":false},{"type":"event","name":"ControllerChanged","inputs":[{"name":"oldController","type":"address","indexed":true,"internalType":"address"},{"name":"newController","type":"address","indexed":true,"internalType":"address"}],"anonymous":false},{"type":"event","name":"ForceTransfer","inputs":[{"name":"partition","type":"bytes32","indexed":true,"internalType":"bytes32"},{"name":"from","type":"address","indexed":true,"internalType":"address"},{"name":"to","type":"address","indexed":true,"internalType":"address"},{"name":"amount","type":"uint256","indexed":false,"internalType":"uint256"},{"name":"reason","type":"string","indexed":false,"internalType":"string"}],"anonymous":false},{"type":"event","name":"IssuedByPartition","inputs":[{"name":"partition","type":"bytes32","indexed":true,"internalType":"bytes32"},{"name":"to","type":"address","indexed":true,"internalType":"address"},{"name":"amount","type":"uint256","indexed":false,"internalType":"uint256"},{"name":"data","type":"bytes","indexed":false,"internalType":"bytes"}],"anonymous":false},{"type":"event","name":"OwnershipTransferred","inputs":[{"name":"previousOwner","type":"address","indexed":true,"internalType":"address"},{"name":"newOwner","type":"address","indexed":true,"internalType":"address"}],"anonymous":false},{"type":"event","name":"RegistryChanged","inputs":[{"name":"oldRegistry","type":"address","indexed":true,"internalType":"address"},{"name":"newRegistry","type":"address","indexed":true,"internalType":"address"}],"anonymous":false},{"type":"event","name":"RoleAdminChanged","inputs":[{"name":"role","type":"bytes32","indexed":true,"internalType":"bytes32"},{"name":"previousAdminRole","type":"bytes32","indexed":true,"internalType":"bytes32"},{"name":"newAdminRole","type":"bytes32","indexed":true,"internalType":"bytes32"}],"anonymous":false},{"type":"event","name":"RoleGranted","inputs":[{"name":"role","type":"bytes32","indexed":true,"internalType":"bytes32"},{"name":"account","type":"address","indexed":true,"internalType":"address"},{"name":"sender","type":"address","indexed":true,"internalType":"address"}],"anonymous":false},{"type":"event","name":"RoleRevoked","inputs":[{"name":"role","type":"bytes32","indexed":true,"internalType":"bytes32"},{"name":"account","type":"address","indexed":true,"internalType":"address"},{"name":"sender","type":"address","indexed":true,"internalType":"address"}],"anonymous":false},{"type":"event","name":"TransferredByPartition","inputs":[{"name":"partition","type":"bytes32","indexed":true,"internalType":"bytes32"},{"name":"from","type":"address","indexed":true,"internalType":"address"},{"name":"to","type":"address","indexed":true,"internalType":"address"},{"name":"amount","type":"uint256","indexed":false,"internalType":"uint256"},{"name":"data","type":"bytes","indexed":false,"internalType":"bytes"},{"name":"operatorData","type":"bytes32","indexed":false,"internalType":"bytes32"}],"anonymous":false},{"type":"error","name":"AccessControlBadConfirmation","inputs":[]},{"type":"error","name":"AccessControlUnauthorizedAccount","inputs":[{"name":"account","type":"address","internalType":"address"},{"name":"neededRole","type":"bytes32","internalType":"bytes32"}]},{"type":"error","name":"OwnableInvalidOwner","inputs":[{"name":"owner","type":"address","internalType":"address"}]},{"type":"error","name":"OwnableUnauthorizedAccount","inputs":[{"name":"account","type":"address","internalType":"address"}]},{"type":"error","name":"ReentrancyGuardReentrantCall","inputs":[]}],"bytecode":{"object":"0x60806040523462000465576200212a803803806200001d8162000469565b92833981019060a081830312620004655780516001600160401b03908181116200046557836200004f918401620004a3565b602093848401519083821162000465576200006c918501620004a3565b936200007b6040850162000513565b93620000986080620000906060840162000513565b920162000513565b946001600160a01b038082169590939086156200044d575f80546001600160a01b03198082168a178355989197919087167f8be0079c531659141344cd1fd0a4f28419497f9722a3daafe3b4186f6b6457e08980a3600190817f9b779b17422d0df92223018b32b4d1fa46e071723d6817e2486d003becc55f005580519083821162000439576002548381811c911680156200042e575b868210146200041a579081601f849311620003c4575b508590601f83116001146200035f578a9262000353575b50505f19600383901b1c191690821b176002555b89519182116200033f5760039283548281811c9116801562000334575b828210146200032057601f8111620002d9575b508798999a87985081601f8511600114620002685750620001de959493928a928492836200025c575b50501b915f1990841b1c191617905562000528565b50620001ea81620005a7565b50169384846005541617600555168092600454161760045560405192817f6aef1fb5b23d0e109fc7f2b0601019e1edbacd177e31a441ec8548e8dd14f0f78180a37f4803049971913703d2dd43c06110dc7fad451e4603e9f485cbeebdda11263ab08180a3611ac19081620006498239f35b015192505f80620001c9565b90979695949391601f19831698858c52828c20928c905b8b8210620002be57505083620001de98999a10620002a6575b505050811b01905562000528565b01515f1983861b60f8161c191690555f808062000298565b8284015185558c9a509386019392830192908101906200027f565b848952818920601f850160051c81019183861062000315575b601f0160051c01905b8181106200030a5750620001a0565b8981558301620002fb565b9091508190620002f2565b634e487b7160e01b89526022600452602489fd5b90607f16906200018d565b634e487b7160e01b87526041600452602487fd5b015190505f806200015c565b60028b52868b208594509190601f1984168c5b89828210620003ad575050841162000394575b505050811b0160025562000170565b01515f1960f88460031b161c191690555f808062000385565b838501518655889790950194938401930162000372565b90915060028a52858a20601f840160051c8101918785106200040f575b84939291601f87920160051c01915b8281106200040057505062000145565b8c8155859450869101620003f0565b9091508190620003e1565b634e487b7160e01b8a52602260045260248afd5b90607f16906200012f565b634e487b7160e01b89526041600452602489fd5b604051631e4fbdf760e01b81525f6004820152602490fd5b5f80fd5b6040519190601f01601f191682016001600160401b038111838210176200048f57604052565b634e487b7160e01b5f52604160045260245ffd5b919080601f84011215620004655782516001600160401b0381116200048f57602090620004d9601f8201601f1916830162000469565b9281845282828701011162000465575f5b818110620004ff5750825f9394955001015290565b8581018301518482018401528201620004ea565b51906001600160a01b03821682036200046557565b6001600160a01b03165f8181527fa6eef7e35abe7026729641147f7915573c7e97b47efa546f5f6e3230263bcb49602052604081205490919060ff16620005a35781805260016020526040822081835260205260408220600160ff1982541617905533915f805160206200210a8339815191528180a4600190565b5090565b6001600160a01b03165f8181527fc3eac9ead20d697480ab489ced881761c627fd3281937449e4d4d7fbf9faa2cd60205260408120549091907f7b765e0e932d348852a6f810bfa1ab891e259123f02db8cdcde614c5702233579060ff16620006435780835260016020526040832082845260205260408320600160ff198254161790555f805160206200210a833981519152339380a4600190565b50509056fe6080604081815260049182361015610015575f80fd5b5f92833560e01c91826301ffc9a7146113105750816306fdde0314611244578163092c5b3b1461121c57816318160ddd146111d2578163248a9ca3146111a85781632de2039b146111805781632f2ff15d14611156578163313ce5671461113a57816336568abe146110f45781633a9482b5146110cc57816370a0823114611055578163715018a614610ffb5781638da5cb5b14610fd3578163913b6f2f14610d0357816391d1485414610cb357816392eefe9b14610b6b57816395d89b4114610a4e5781639b03b4eb14610a0d578163a217fddf146109f2578163a26734dc146109ca578163a6f4de2d146107a6578163a91ee0dc14610684578163cac89c5c1461065c578163d547741f1461061d578163ebe614a114610495578163f2fde38b1461040a578163f3d490db14610181575063f77c479114610156575f80fd5b3461017d578160031936011261017d5760055490516001600160a01b039091168152602090f35b5080fd5b83833461017d576101913661143d565b9194935f80516020611a6c83398151915281979492971480156103f4575b6101b890611773565b7f9b779b17422d0df92223018b32b4d1fa46e071723d6817e2486d003becc55f009360028554146103e457600285556001600160a01b0397838916946101ff86151561198c565b61020a8915156117be565b33835260209960078b528884208585528b528989852054101561022c90611927565b8b5416838c8a5192839163cb04072f60e01b835233908301528960248301528760448301528c6064830152815a91608492fa9081156103da576102ae91859182916103b5575b5086898c517f6f52a64c6d01a3882a8894918aefdc617772f46933fd597b5e9e38c9306a82423391806102a6878983611896565b0390a46118b6565b33835260078a528783208484528a528783206102cb8a825461197f565b905585835260078a528783208484528a528783206102ea8a82546118e6565b90558751948a8601903360601b82526bffffffffffffffffffffffff199060601b1660348701528460488701528960688701524260888701526088865260c086019386851067ffffffffffffffff8611176103a257507fff6c62a46d729bd7ccda32b6f369f1dfb6bdec8dab72b80c59f7870fc175c12992849261038a9260019a999897968c52875190209b8452606060e0880152610120870191611907565b89610100860152339460bf1991030190a45551908152f35b634e487b7160e01b815260418d52602490fd5b90506103d391503d8087833e6103cb8183611363565b810190611819565b908e610272565b89513d86823e3d90fd5b8551633ee5aeb560e01b81528990fd5b505f80516020611a4c83398151915281146101af565b905034610491576020366003190112610491576104256113f9565b9061042e6116ec565b6001600160a01b0391821692831561047b57505082546001600160a01b0319811683178455167f8be0079c531659141344cd1fd0a4f28419497f9722a3daafe3b4186f6b6457e08380a380f35b51631e4fbdf760e01b8152908101849052602490fd5b8280fd5b8391503461017d576104a63661143d565b5f80516020611a2c83398151915287526020936001855288882033895285526104d460ff8a8a205416611717565b5f80516020611a6c83398151915286148015610607575b6104f490611773565b6001600160a01b03169586156105af5750965f6105a58493899a61053b7fff6c62a46d729bd7ccda32b6f369f1dfb6bdec8dab72b80c59f7870fc175c129989715156117be565b898b5260078752848b20898c52875261055986868d20541015611927565b898b5260078752848b20898c528752848b2061057687825461197f565b9055888b5260068752848b2061058d87825461197f565b90556060855197889788528701526060860191611907565b918301520390a480f35b885162461bcd60e51b8152908101859052602c60248201527f5365637572697479546f6b656e3a2063616e6e6f74206275726e2066726f6d2060448201526b7a65726f206164647265737360a01b6064820152608490fd5b505f80516020611a4c83398151915286146104eb565b91905034610491578060031936011261049157610658913561065360016106426113df565b938387528160205286200154611489565b611669565b5080f35b9050346104915782600319360112610491575490516001600160a01b03909116815260209150f35b91905034610491576020366003190112610491576106a06113f9565b916106a96116ec565b6001600160a01b0392831692831561074c578154908116928385146106fe57506001600160a01b031916831790557f4803049971913703d2dd43c06110dc7fad451e4603e9f485cbeebdda11263ab08380a380f35b5162461bcd60e51b8152602081840152602360248201527f5365637572697479546f6b656e3a20726567697374727920616c7265616479206044820152621cd95d60ea1b6064820152608490fd5b506020608492519162461bcd60e51b8352820152602e60248201527f5365637572697479546f6b656e3a2072656769737472792063616e6e6f74206260448201526d65207a65726f206164647265737360901b6064820152fd5b905034610491576107b63661143d565b5f80516020611a2c833981519152889694965260209360018552878920338a5285526107e760ff898b205416611717565b5f80516020611a6c833981519152861480156109b4575b61080790611773565b6001600160a01b038781169790881561095e5785928b92899261082b8615156117be565b82548d5163cb04072f60e01b81525f9481019485526001600160a01b0390931660208501526040840194909452606083019590955293849216908290819060800103915afa908982156109535761092b949392899a92897f6032e2468b0f94dfa63c61d6c8a84842a99c049263eae408a52b945020b6578d9a9b846108e295938195610931575b507f6f52a64c6d01a3882a8894918aefdc617772f46933fd597b5e9e38c9306a82428751806102a6878983611896565b888a5260078652808a20888b528652808a206108ff8682546118e6565b9055878a5260068652808a206109168682546118e6565b90558080519687968752860152840191611907565b0390a380f35b9094506109499193503d8086833e6103cb8183611363565b929092935f6108b2565b8951903d90823e3d90fd5b895162461bcd60e51b8152808401889052602a60248201527f5365637572697479546f6b656e3a2063616e6e6f74206d696e7420746f207a65604482015269726f206164647265737360b01b6064820152608490fd5b505f80516020611a4c83398151915286146107fe565b9050346104915760203660031901126104915760209282913581526006845220549051908152f35b50503461017d578160031936011261017d5751908152602090f35b50503461017d578060031936011261017d5760209181906001600160a01b03610a346113f9565b168152600784528181206024358252845220549051908152f35b828434610b685780600319360112610b68578151918160035492600184811c91818616958615610b5e575b6020968785108114610b4b578899509688969785829a5291825f14610b24575050600114610ac8575b505050610ac49291610ab5910385611363565b519282849384528301906113ba565b0390f35b9190869350600383527fc2575a0e9e593c00f959f8c92f12db2869c3395a3b0502d05e2516446f71f85b5b828410610b0c5750505082010181610ab5610ac4610aa2565b8054848a018601528895508794909301928101610af3565b60ff19168782015293151560051b86019093019350849250610ab59150610ac49050610aa2565b634e487b7160e01b835260228a52602483fd5b92607f1692610a79565b80fd5b90503461049157602036600319011261049157610b866113f9565b90610b8f6116ec565b6001600160a01b03828116939091908415610c5757338514610bff575050610bc5906005541691610bbf836115e3565b506114cb565b50600580546001600160a01b031916831790557f6aef1fb5b23d0e109fc7f2b0601019e1edbacd177e31a441ec8548e8dd14f0f78380a380f35b906020608492519162461bcd60e51b8352820152602c60248201527f5365637572697479546f6b656e3a2063616e6e6f74207365742073656c66206160448201526b399031b7b73a3937b63632b960a11b6064820152fd5b906020608492519162461bcd60e51b8352820152603060248201527f5365637572697479546f6b656e3a20636f6e74726f6c6c65722063616e6e6f7460448201526f206265207a65726f206164647265737360801b6064820152fd5b828434610b685781600319360112610b685750610cfa602092610cd46113df565b90355f52600160205260405f209060018060a01b03165f5260205260ff60405f20541690565b90519015158152f35b9050346104915760a036600319011261049157803583610d216113df565b6001600160a01b036044358181169691959291878203610fcf57606435936084359267ffffffffffffffff8411610fcb57610d6089943690840161140f565b9490955f80516020611a2c8339815191528952610d9060ff8660209b60018d528181203382528d52205416611717565b5f80516020611a6c8339815191528a148015610fb5575b610db090611773565b16988915610f5957610dec87858e610dc98f151561198c565b610dd48315156117be565b8d815260078c528181208d82528c5220541015611927565b8415610f16578254845163cb04072f60e01b81525f9481019485526001600160a01b03939093166020850152604084018a90526060840188905291928c9283928592839003608001918391165afa918215610f0a57610ee7949282610eab927fe771bb5c989a2c201fce4f6e6d21c03a05c99621932cc8ee8708bdce4f17d1579a999896949192610eed575b508a8d8d7f6f52a64c6d01a3882a8894918aefdc617772f46933fd597b5e9e38c9306a82428751806102a6878983611896565b888b5260078652808b20888c528652808b20610ec886825461197f565b9055898b5260078652808b20888c528652808b206109168682546118e6565b0390a480f35b610f03925090503d808f833e6103cb8183611363565b905f610e78565b508251903d90823e3d90fd5b835162461bcd60e51b8152808401899052601e60248201527f5365637572697479546f6b656e3a20726561736f6e20726571756972656400006044820152606490fd5b835162461bcd60e51b8152808401899052603060248201527f5365637572697479546f6b656e3a2063616e6e6f74207472616e73666572206660448201526f726f6d207a65726f206164647265737360801b6064820152608490fd5b505f80516020611a4c8339815191528a14610da7565b8680fd5b8480fd5b50503461017d578160031936011261017d57905490516001600160a01b039091168152602090f35b8334610b685780600319360112610b68576110146116ec565b80546001600160a01b03198116825581906001600160a01b03167f8be0079c531659141344cd1fd0a4f28419497f9722a3daafe3b4186f6b6457e08280a380f35b50503461017d5760209182600319360112610b68576110c590826001600160a01b0361107f6113f9565b1691828152600786528181205f80516020611a6c8339815191528252865281812054928152600786528181205f80516020611a4c833981519152825286522054906118e6565b9051908152f35b50503461017d578160031936011261017d57602090515f80516020611a4c8339815191528152f35b83833461017d578060031936011261017d5761110e6113df565b90336001600160a01b0383160361112b5750610658919235611669565b5163334bd91960e11b81528390fd5b50503461017d578160031936011261017d576020905160128152f35b91905034610491578060031936011261049157610658913561117b60016106426113df565b611558565b50503461017d578160031936011261017d57602090515f80516020611a6c8339815191528152f35b90503461049157602036600319011261049157816020936001923581528285522001549051908152f35b50503461017d578160031936011261017d576110c5825f80516020611a6c83398151915260209452600684528280822054915f80516020611a4c83398151915281522054906118e6565b50503461017d578160031936011261017d57602090515f80516020611a2c8339815191528152f35b828434610b685780600319360112610b68578151918160025492600184811c91818616958615611306575b6020968785108114610b4b578899509688969785829a5291825f14610b245750506001146112aa57505050610ac49291610ab5910385611363565b9190869350600283527f405787fa12a823e0f2b7631cc41b3ba8828b3321ca811111fa75cd3aa3bb5ace5b8284106112ee5750505082010181610ab5610ac4610aa2565b8054848a0186015288955087949093019281016112d5565b92607f169261126f565b849134610491576020366003190112610491573563ffffffff60e01b81168091036104915760209250637965db0b60e01b8114908115611352575b5015158152f35b6301ffc9a760e01b1490508361134b565b90601f8019910116810190811067ffffffffffffffff82111761138557604052565b634e487b7160e01b5f52604160045260245ffd5b5f5b8381106113aa5750505f910152565b818101518382015260200161139b565b906020916113d381518092818552858086019101611399565b601f01601f1916010190565b602435906001600160a01b03821682036113f557565b5f80fd5b600435906001600160a01b03821682036113f557565b9181601f840112156113f55782359167ffffffffffffffff83116113f557602083818601950101116113f557565b9060806003198301126113f557600435916024356001600160a01b03811681036113f55791604435916064359067ffffffffffffffff82116113f5576114859160040161140f565b9091565b5f81815260016020908152604080832033845290915290205460ff16156114ad5750565b6044906040519063e2517d3f60e01b82523360048301526024820152fd5b6114d4816119ef565b611553576001600160a01b03165f8181527fc3eac9ead20d697480ab489ced881761c627fd3281937449e4d4d7fbf9faa2cd60205260408120805460ff191660011790553391905f80516020611a2c833981519152907f2f8788117e7eff1d82e926ec794901d17c78024a50270940304540a733656f0d9080a4600190565b505f90565b9061158281835f52600160205260405f209060018060a01b03165f5260205260ff60405f20541690565b6115dd575f918083526001602052604083209160018060a01b03169182845260205260408320600160ff198254161790557f2f8788117e7eff1d82e926ec794901d17c78024a50270940304540a733656f0d339380a4600190565b50505f90565b6115ec816119ef565b15611553576001600160a01b03165f8181527fc3eac9ead20d697480ab489ced881761c627fd3281937449e4d4d7fbf9faa2cd60205260408120805460ff191690553391905f80516020611a2c833981519152907ff6391f5c32d9c69d2a47ea670b442974b53935d1edc7fd64eb21e047a839171b9080a4600190565b9061169381835f52600160205260405f209060018060a01b03165f5260205260ff60405f20541690565b156115dd575f918083526001602052604083209160018060a01b0316918284526020526040832060ff1981541690557ff6391f5c32d9c69d2a47ea670b442974b53935d1edc7fd64eb21e047a839171b339380a4600190565b5f546001600160a01b031633036116ff57565b60405163118cdaa760e01b8152336004820152602490fd5b1561171e57565b60405162461bcd60e51b815260206004820152602760248201527f5365637572697479546f6b656e3a2063616c6c6572206973206e6f7420636f6e6044820152663a3937b63632b960c91b6064820152608490fd5b1561177a57565b606460405162461bcd60e51b815260206004820152602060248201527f5365637572697479546f6b656e3a20696e76616c696420706172746974696f6e6044820152fd5b156117c557565b60405162461bcd60e51b815260206004820152602660248201527f5365637572697479546f6b656e3a20616d6f756e74206d75737420626520706f60448201526573697469766560d01b6064820152608490fd5b91906040838203126113f557825180151581036113f55792602081015167ffffffffffffffff918282116113f557019082601f830112156113f55781519081116113855760405192611875601f8301601f191660200185611363565b818452602082840101116113f5576118939160208085019101611399565b90565b906118ae6020919493946040845260408401906113ba565b931515910152565b156118be5750565b60405162461bcd60e51b8152602060048201529081906118e29060248301906113ba565b0390fd5b919082018092116118f357565b634e487b7160e01b5f52601160045260245ffd5b908060209392818452848401375f828201840152601f01601f1916010190565b1561192e57565b60405162461bcd60e51b815260206004820152602360248201527f5365637572697479546f6b656e3a20696e73756666696369656e742062616c616044820152626e636560e81b6064820152608490fd5b919082039182116118f357565b1561199357565b60405162461bcd60e51b815260206004820152602e60248201527f5365637572697479546f6b656e3a2063616e6e6f74207472616e73666572207460448201526d6f207a65726f206164647265737360901b6064820152608490fd5b6001600160a01b03165f9081527fc3eac9ead20d697480ab489ced881761c627fd3281937449e4d4d7fbf9faa2cd602052604090205460ff169056fe7b765e0e932d348852a6f810bfa1ab891e259123f02db8cdcde614c5702233574a7e0eba24b6b787bf68192ab18d9a325f89c2324c942864c501565bb41a0ba06a03b0013265372b884812b0d3773c026802ac22c12c90268815d185b1917b18a2646970667358221220bd36bceac016d8a40de3b35258681f3b877c7fdf95972c2293f5c224480f860364736f6c634300081400332f8788117e7eff1d82e926ec794901d17c78024a50270940304540a733656f0d","linkReferences":{}},"methodIdentifiers":{"CONTROLLER_ROLE()":"092c5b3b","DEFAULT_ADMIN_ROLE()":"a217fddf","REG_D()":"2de2039b","REG_S()":"3a9482b5","balanceOf(address)":"70a08231","balanceOfByPartition(address,bytes32)":"9b03b4eb","burnByPartition(bytes32,address,uint256,bytes)":"ebe614a1","complianceRegistry()":"cac89c5c","controller()":"f77c4791","decimals()":"313ce567","forceTransfer(bytes32,address,address,uint256,string)":"913b6f2f","getRoleAdmin(bytes32)":"248a9ca3","grantRole(bytes32,address)":"2f2ff15d","hasRole(bytes32,address)":"91d14854","mintByPartition(bytes32,address,uint256,bytes)":"a6f4de2d","name()":"06fdde03","owner()":"8da5cb5b","renounceOwnership()":"715018a6","renounceRole(bytes32,address)":"36568abe","revokeRole(bytes32,address)":"d547741f","setController(address)":"92eefe9b","setRegistry(address)":"a91ee0dc","supportsInterface(bytes4)":"01ffc9a7","symbol()":"95d89b41","totalSupply()":"18160ddd","totalSupplyByPartition(bytes32)":"a26734dc","transferByPartition(bytes32,address,uint256,bytes)":"f3d490db","transferOwnership(address)":"f2fde38b"},"id":41}