{"abi":[{"type":"constructor","inputs":[],"stateMutability":"nonpayable"},{"type":"function","name":"CONTROLLER_ROLE","inputs":[],"outputs":[{"name":"","type":"bytes32","internalType":"bytes32"}],"stateMutability":"view"},{"type":"function","name":"DEFAULT_ADMIN_ROLE","inputs":[],"outputs":[{"name":"","type":"bytes32","internalType":"bytes32"}],"stateMutability":"view"},{"type":"function","name":"REG_D","inputs":[],"outputs":[{"name":"","type":"bytes32","internalType":"bytes32"}],"stateMutability":"view"},{"type":"function","name":"REG_S","inputs":[],"outputs":[{"name":"","type":"bytes32","internalType":"bytes32"}],"stateMutability":"view"},{"type":"function","name":"acceptController","inputs":[],"outputs":[],"stateMutability":"nonpayable"},{"type":"function","name":"balanceOf","inputs":[{"name":"account","type":"address","internalType":"address"}],"outputs":[{"name":"","type":"uint256","internalType":"uint256"}],"stateMutability":"view"},{"type":"function","name":"balanceOfByPartition","inputs":[{"name":"","type":"address","internalType":"address"},{"name":"","type":"bytes32","internalType":"bytes32"}],"outputs":[{"name":"","type":"uint256","internalType":"uint256"}],"stateMutability":"view"},{"type":"function","name":"burnByPartition","inputs":[{"name":"partition","type":"bytes32","internalType":"bytes32"},{"name":"from","type":"address","internalType":"address"},{"name":"amount","type":"uint256","internalType":"uint256"},{"name":"data","type":"bytes","internalType":"bytes"}],"outputs":[],"stateMutability":"nonpayable"},{"type":"function","name":"complianceRegistry","inputs":[],"outputs":[{"name":"","type":"address","internalType":"contract IComplianceRegistry"}],"stateMutability":"view"},{"type":"function","name":"controller","inputs":[],"outputs":[{"name":"","type":"address","internalType":"address"}],"stateMutability":"view"},{"type":"function","name":"decimals","inputs":[],"outputs":[{"name":"","type":"uint8","internalType":"uint8"}],"stateMutability":"view"},{"type":"function","name":"forceTransfer","inputs":[{"name":"partition","type":"bytes32","internalType":"bytes32"},{"name":"from","type":"address","internalType":"address"},{"name":"to","type":"address","internalType":"address"},{"name":"amount","type":"uint256","internalType":"uint256"},{"name":"reasonCode","type":"bytes32","internalType":"bytes32"},{"name":"reasonNote","type":"string","internalType":"string"}],"outputs":[],"stateMutability":"nonpayable"},{"type":"function","name":"getRoleAdmin","inputs":[{"name":"role","type":"bytes32","internalType":"bytes32"}],"outputs":[{"name":"","type":"bytes32","internalType":"bytes32"}],"stateMutability":"view"},{"type":"function","name":"grantRole","inputs":[{"name":"role","type":"bytes32","internalType":"bytes32"},{"name":"account","type":"address","internalType":"address"}],"outputs":[],"stateMutability":"nonpayable"},{"type":"function","name":"hasRole","inputs":[{"name":"role","type":"bytes32","internalType":"bytes32"},{"name":"account","type":"address","internalType":"address"}],"outputs":[{"name":"","type":"bool","internalType":"bool"}],"stateMutability":"view"},{"type":"function","name":"initialize","inputs":[{"name":"_name","type":"string","internalType":"string"},{"name":"_symbol","type":"string","internalType":"string"},{"name":"_owner","type":"address","internalType":"address"},{"name":"_controller","type":"address","internalType":"address"},{"name":"_registry","type":"address","internalType":"address"}],"outputs":[],"stateMutability":"nonpayable"},{"type":"function","name":"mintByPartition","inputs":[{"name":"partition","type":"bytes32","internalType":"bytes32"},{"name":"to","type":"address","internalType":"address"},{"name":"amount","type":"uint256","internalType":"uint256"},{"name":"data","type":"bytes","internalType":"bytes"}],"outputs":[],"stateMutability":"nonpayable"},{"type":"function","name":"name","inputs":[],"outputs":[{"name":"","type":"string","internalType":"string"}],"stateMutability":"view"},{"type":"function","name":"owner","inputs":[],"outputs":[{"name":"","type":"address","internalType":"address"}],"stateMutability":"view"},{"type":"function","name":"pause","inputs":[],"outputs":[],"stateMutability":"nonpayable"},{"type":"function","name":"paused","inputs":[],"outputs":[{"name":"","type":"bool","internalType":"bool"}],"stateMutability":"view"},{"type":"function","name":"pendingController","inputs":[],"outputs":[{"name":"","type":"address","internalType":"address"}],"stateMutability":"view"},{"type":"function","name":"proposeController","inputs":[{"name":"newController","type":"address","internalType":"address"}],"outputs":[],"stateMutability":"nonpayable"},{"type":"function","name":"renounceOwnership","inputs":[],"outputs":[],"stateMutability":"nonpayable"},{"type":"function","name":"renounceRole","inputs":[{"name":"role","type":"bytes32","internalType":"bytes32"},{"name":"callerConfirmation","type":"address","internalType":"address"}],"outputs":[],"stateMutability":"nonpayable"},{"type":"function","name":"rescueERC20","inputs":[{"name":"token","type":"address","internalType":"address"},{"name":"to","type":"address","internalType":"address"},{"name":"amount","type":"uint256","internalType":"uint256"}],"outputs":[],"stateMutability":"nonpayable"},{"type":"function","name":"rescueERC721","inputs":[{"name":"token","type":"address","internalType":"address"},{"name":"to","type":"address","internalType":"address"},{"name":"tokenId","type":"uint256","internalType":"uint256"}],"outputs":[],"stateMutability":"nonpayable"},{"type":"function","name":"revokeRole","inputs":[{"name":"role","type":"bytes32","internalType":"bytes32"},{"name":"account","type":"address","internalType":"address"}],"outputs":[],"stateMutability":"nonpayable"},{"type":"function","name":"setController","inputs":[{"name":"newController","type":"address","internalType":"address"}],"outputs":[],"stateMutability":"nonpayable"},{"type":"function","name":"setRegistry","inputs":[{"name":"newRegistry","type":"address","internalType":"address"}],"outputs":[],"stateMutability":"nonpayable"},{"type":"function","name":"supportsInterface","inputs":[{"name":"interfaceId","type":"bytes4","internalType":"bytes4"}],"outputs":[{"name":"","type":"bool","internalType":"bool"}],"stateMutability":"view"},{"type":"function","name":"symbol","inputs":[],"outputs":[{"name":"","type":"string","internalType":"string"}],"stateMutability":"view"},{"type":"function","name":"totalSupply","inputs":[],"outputs":[{"name":"","type":"uint256","internalType":"uint256"}],"stateMutability":"view"},{"type":"function","name":"totalSupplyByPartition","inputs":[{"name":"","type":"bytes32","internalType":"bytes32"}],"outputs":[{"name":"","type":"uint256","internalType":"uint256"}],"stateMutability":"view"},{"type":"function","name":"transferByPartition","inputs":[{"name":"partition","type":"bytes32","internalType":"bytes32"},{"name":"to","type":"address","internalType":"address"},{"name":"amount","type":"uint256","internalType":"uint256"},{"name":"data","type":"bytes","internalType":"bytes"}],"outputs":[{"name":"","type":"bytes32","internalType":"bytes32"}],"stateMutability":"nonpayable"},{"type":"function","name":"transferOwnership","inputs":[{"name":"newOwner","type":"address","internalType":"address"}],"outputs":[],"stateMutability":"nonpayable"},{"type":"function","name":"unpause","inputs":[],"outputs":[],"stateMutability":"nonpayable"},{"type":"event","name":"ComplianceCheck","inputs":[{"name":"from","type":"address","indexed":true,"internalType":"address"},{"name":"to","type":"address","indexed":true,"internalType":"address"},{"name":"partition","type":"bytes32","indexed":true,"internalType":"bytes32"},{"name":"reasonCode","type":"bytes32","indexed":false,"internalType":"bytes32"},{"name":"lockupUntil","type":"uint64","indexed":false,"internalType":"uint64"},{"name":"passed","type":"bool","indexed":false,"internalType":"bool"}],"anonymous":false},{"type":"event","name":"ControllerChanged","inputs":[{"name":"oldController","type":"address","indexed":true,"internalType":"address"},{"name":"newController","type":"address","indexed":true,"internalType":"address"}],"anonymous":false},{"type":"event","name":"ControllerProposed","inputs":[{"name":"proposedController","type":"address","indexed":true,"internalType":"address"}],"anonymous":false},{"type":"event","name":"ForceTransfer","inputs":[{"name":"partition","type":"bytes32","indexed":true,"internalType":"bytes32"},{"name":"from","type":"address","indexed":true,"internalType":"address"},{"name":"to","type":"address","indexed":true,"internalType":"address"},{"name":"amount","type":"uint256","indexed":false,"internalType":"uint256"},{"name":"reasonCode","type":"bytes32","indexed":false,"internalType":"bytes32"},{"name":"reasonNote","type":"string","indexed":false,"internalType":"string"}],"anonymous":false},{"type":"event","name":"IssuedByPartition","inputs":[{"name":"partition","type":"bytes32","indexed":true,"internalType":"bytes32"},{"name":"to","type":"address","indexed":true,"internalType":"address"},{"name":"amount","type":"uint256","indexed":false,"internalType":"uint256"},{"name":"data","type":"bytes","indexed":false,"internalType":"bytes"}],"anonymous":false},{"type":"event","name":"OwnershipTransferred","inputs":[{"name":"previousOwner","type":"address","indexed":true,"internalType":"address"},{"name":"newOwner","type":"address","indexed":true,"internalType":"address"}],"anonymous":false},{"type":"event","name":"Paused","inputs":[{"name":"account","type":"address","indexed":false,"internalType":"address"}],"anonymous":false},{"type":"event","name":"RegistryChanged","inputs":[{"name":"oldRegistry","type":"address","indexed":true,"internalType":"address"},{"name":"newRegistry","type":"address","indexed":true,"internalType":"address"}],"anonymous":false},{"type":"event","name":"RoleAdminChanged","inputs":[{"name":"role","type":"bytes32","indexed":true,"internalType":"bytes32"},{"name":"previousAdminRole","type":"bytes32","indexed":true,"internalType":"bytes32"},{"name":"newAdminRole","type":"bytes32","indexed":true,"internalType":"bytes32"}],"anonymous":false},{"type":"event","name":"RoleGranted","inputs":[{"name":"role","type":"bytes32","indexed":true,"internalType":"bytes32"},{"name":"account","type":"address","indexed":true,"internalType":"address"},{"name":"sender","type":"address","indexed":true,"internalType":"address"}],"anonymous":false},{"type":"event","name":"RoleRevoked","inputs":[{"name":"role","type":"bytes32","indexed":true,"internalType":"bytes32"},{"name":"account","type":"address","indexed":true,"internalType":"address"},{"name":"sender","type":"address","indexed":true,"internalType":"address"}],"anonymous":false},{"type":"event","name":"TransferredByPartition","inputs":[{"name":"partition","type":"bytes32","indexed":true,"internalType":"bytes32"},{"name":"from","type":"address","indexed":true,"internalType":"address"},{"name":"to","type":"address","indexed":true,"internalType":"address"},{"name":"amount","type":"uint256","indexed":false,"internalType":"uint256"},{"name":"data","type":"bytes","indexed":false,"internalType":"bytes"},{"name":"operatorData","type":"bytes32","indexed":false,"internalType":"bytes32"}],"anonymous":false},{"type":"event","name":"Unpaused","inputs":[{"name":"account","type":"address","indexed":false,"internalType":"address"}],"anonymous":false},{"type":"error","name":"AccessControlBadConfirmation","inputs":[]},{"type":"error","name":"AccessControlUnauthorizedAccount","inputs":[{"name":"account","type":"address","internalType":"address"},{"name":"neededRole","type":"bytes32","internalType":"bytes32"}]},{"type":"error","name":"EnforcedPause","inputs":[]},{"type":"error","name":"ExpectedPause","inputs":[]},{"type":"error","name":"OwnableInvalidOwner","inputs":[{"name":"owner","type":"address","internalType":"address"}]},{"type":"error","name":"OwnableUnauthorizedAccount","inputs":[{"name":"account","type":"address","internalType":"address"}]},{"type":"error","name":"ReentrancyGuardReentrantCall","inputs":[]}],"bytecode":{"object":"0x6080806040523461007d573315610068575f8054336001600160a01b03198216811783556040519290916001600160a01b0316907f8be0079c531659141344cd1fd0a4f28419497f9722a3daafe3b4186f6b6457e09080a36001600255612f5590816100828239f35b631e4fbdf760e01b81525f6004820152602490fd5b5f80fdfe6080604081815260049182361015610015575f80fd5b5f92833560e01c91826301ffc9a7146125105750816306fdde031461243b578163092c5b3b1461241357816318160ddd146123c95781631be0003f14611df2578163248a9ca314611dc85781632de2039b14611da05781632f2ff15d14611d76578163313ce56714611d5a57816336568abe14611d145781633a9482b514611cec5781633f4ba83a14611c825781635c975abb14611c5e57816370a0823114611be7578163715018a614611b8d578382637df325e114611ae3575081638456cb5914611a775781638da5cb5b14611a4f57816391d14854146119ff57816392eefe9b1461191457816395d89b41146118345781639b03b4eb146117f35781639bc21c0c14611717578163a217fddf146116fc578163a26734dc146116d4578163a2cab3a1146116ab578163a6f4de2d14611273578163a91ee0dc1461114e578163b2118a8d146110af578163c8f6ec551461103d578163cac89c5c14611014578163d547741f14610fd5578163db0ed6a014610ac1578163ebe614a114610722578163f2fde38b146106cc578163f3d490db146101e6575063f77c4791146101bb575f80fd5b346101e257816003193601126101e25760075490516001600160a01b039091168152602090f35b5080fd5b919050346105dd576101f7366126bd565b969391959060028054146106bd57600280556001600160a01b039784891695610221871515612cd0565b61022c891515612b1f565b338152602099600a8b528882208683528b5261024d8a8a8420541015612c6b565b60ff6003541661067257600654169088516330fe6dcd60e21b81528b818781865afa90811561049457829161063d575b506105f25788516372c1cc1b60e11b80825233878301528c82602481875afa9182156105e85783926105ad575b50811561054f575b50610504575f80516020612f00833981519152861415806104ed575b61049e578851809263cb04072f60e01b825233878301528960248301528760448301528b606483015281608460609586935afa908115610494578291888b610358938e969386918791610451575b50875191825267ffffffffffffffff166020820152831515604082015233905f80516020612e208339815191529080606081015b0390a4612c0a565b338152600a8c528181208782528c528181206103758c8254612cc3565b9055888152600a8c528181208782528c52206103928a8254612c2a565b90558751958a87019033831b82526001600160601b031990831b1660348801528560488801528960688801524260888801526088875260c087019487861067ffffffffffffffff87111761043e57508489528651902098845260e08601527fff6c62a46d729bd7ccda32b6f369f1dfb6bdec8dab72b80c59f7870fc175c129929161042291610120870191612c4b565b87610100860152339460bf1991030190a4600160025551908152f35b604190634e487b7160e01b5f525260245ffd5b90505f80516020612e2083398151915294506104839150883d8a1161048d575b61047b818361259b565b810190612bd7565b919450908461031c565b503d610471565b8a513d84823e3d90fd5b8489878a8e856104e9968551925f80516020612ea08339815191528452830152848201525f80516020612e2083398151915260603392a45162461bcd60e51b81529182918201612ba8565b0390fd5b505f80516020612e608339815191528614156102ce565b8489878a8e856104e9968551925f80516020612ec08339815191528452830152848201525f80516020612e2083398151915260603392a45162461bcd60e51b81529182918201612ba8565b9050895190815288868201528b81602481865afa908115610494578291610578575b505f6102b2565b90508b81813d83116105a6575b61058f818361259b565b810103126101e2576105a090612b9b565b5f610571565b503d610585565b9091508c81813d83116105e1575b6105c5818361259b565b810103126105dd576105d690612b9b565b905f6102aa565b8280fd5b503d6105bb565b8b513d85823e3d90fd5b8489878a8e856104e9968551925f80516020612ee08339815191528452830152848201525f80516020612e2083398151915260603392a45162461bcd60e51b81529182918201612b7a565b90508b81813d831161066b575b610654818361259b565b810103126101e25761066590612b9b565b5f61027d565b503d61064a565b6104e9858a888b8f87808551925f80516020612e808339815191528452830152848201525f80516020612e2083398151915260603392a45162461bcd60e51b81529182918201612b7a565b508451633ee5aeb560e01b8152fd5b9050346105dd5760203660031901126105dd576106e7612644565b916106f0612a52565b6001600160a01b0383161561070c578361070984612a7d565b80f35b51631e4fbdf760e01b8152908101839052602490fd5b8383346101e257610732366126bd565b5f80516020612e4083398151915287969394965260209760018952838820335f52895261076460ff855f205416612ac3565b6001600160a01b03968716968715610a6957610781861515612b1f565b60ff60035416610a1d576006541684516330fe6dcd60e21b81528a818481855afa908115610a13578a916109da575b5061098e57896024918651928380926372c1cc1b60e11b82528c878301525afa90811561098457899161094b575b50610900575f80516020612f00833981519152861415806108e9575b61089e5750915f6108947fff6c62a46d729bd7ccda32b6f369f1dfb6bdec8dab72b80c59f7870fc175c1299593899a95898b52600a8752848b20898c52875261084886868d20541015612c6b565b898b52600a8752848b20898c528752848b20610865878254612cc3565b9055888b5260098752848b2061087c878254612cc3565b90556060855197889788528701526060860191612c4b565b918301520390a480f35b9693505050925f80516020612e2083398151915260606104e997848751915f80516020612ea083398151915283528201528487820152a45162461bcd60e51b81529182918201612ba8565b505f80516020612e608339815191528614156107fa565b9693505050925f80516020612e2083398151915260606104e997848751915f80516020612ec083398151915283528201528487820152a45162461bcd60e51b81529182918201612ba8565b90508981813d831161097d575b610962818361259b565b810103126109795761097390612b9b565b8a6107de565b8880fd5b503d610958565b85513d8b823e3d90fd5b509693505050925f80516020612e2083398151915260606104e997848751915f80516020612ee083398151915283528201528487820152a45162461bcd60e51b81529182918201612b7a565b90508a81813d8311610a0c575b6109f1818361259b565b81010312610a0857610a0290612b9b565b8b6107b0565b8980fd5b503d6109e7565b86513d8c823e3d90fd5b509693505050925f80516020612e2083398151915260606104e997848751915f80516020612e8083398151915283528201528487820152a45162461bcd60e51b81529182918201612b7a565b845162461bcd60e51b81528083018b9052602c60248201527f5365637572697479546f6b656e3a2063616e6e6f74206275726e2066726f6d2060448201526b7a65726f206164647265737360a01b6064820152608490fd5b9050346105dd5760a03660031901126105dd5767ffffffffffffffff8135818111610fd157610af39036908401612709565b6024918235818111610fcd57610b0c9036908601612709565b90610b1561262e565b6001600160a01b0360643581811697909692959291888803610fc95760843599818b16809b03610fc957825491610b4b83612563565b610f7c57881615610f2f578915610edd578a15610e8d5750835190858211610e7b57610b778291612563565b94601f95868111610e0e575b506020908d878411600114610d8e5792610d83575b50508160011b915f199060031b1c19161781555b8451938411610d72575050600592610bc48454612563565b828111610d15575b506020918311600114610c8c579180610c0f9492610c159796948b92610c81575b50508160011b915f199060031b1c19161790555b610c0a81612a7d565b61282e565b506127a1565b50816001600160601b0360a01b828160075416176007556006541617600655827f6aef1fb5b23d0e109fc7f2b0601019e1edbacd177e31a441ec8548e8dd14f0f78180a3817f4803049971913703d2dd43c06110dc7fad451e4603e9f485cbeebdda11263ab08180a380f35b015190505f80610bed565b8389527f036b6384b5eca791c62761152d0c79bb0604c104a5fb6f4eb0703f3154bb3db09190601f1984168a5b818110610cfd5750926001928592610c15999896610c0f989610610ce5575b505050811b019055610c01565b01515f1960f88460031b161c191690555f8080610cd8565b92936020600181928786015181550195019301610cb9565b848a527f036b6384b5eca791c62761152d0c79bb0604c104a5fb6f4eb0703f3154bb3db083808601871c82019260208710610d69575b01861c01905b818110610d5e5750610bcc565b8a8155600101610d51565b92508192610d4b565b634e487b7160e01b8a526041905288fd5b015190505f80610b98565b8581527f8a35acfbc15ff81a39ae7d344fd709f28e8600b4aa8c65c6b64bfe7fe36bd19b9350601f198516905b818110610df65750908460019594939210610dde575b505050811b018155610bac565b01515f1960f88460031b161c191690555f8080610dd1565b92936020600181928786015181550195019301610dbb565b909150838d527f8a35acfbc15ff81a39ae7d344fd709f28e8600b4aa8c65c6b64bfe7fe36bd19b8680850160051c82019260208610610e72575b859493910160051c909101908e5b828210610e64575050610b83565b81558493506001018e610e56565b92508192610e48565b634e487b7160e01b8c5260418352838cfd5b5162461bcd60e51b81526020818401526026818501527f5365637572697479546f6b656e3a2072656769737472792063616e6e6f74206260448201526565207a65726f60d01b6064820152608490fd5b5162461bcd60e51b81526020818401526028818501527f5365637572697479546f6b656e3a20636f6e74726f6c6c65722063616e6e6f74604482015267206265207a65726f60c01b6064820152608490fd5b5162461bcd60e51b81526020818401526023818501527f5365637572697479546f6b656e3a206f776e65722063616e6e6f74206265207a60448201526265726f60e81b6064820152608490fd5b815162461bcd60e51b81526020818601526022818701527f5365637572697479546f6b656e3a20616c726561647920696e697469616c697a604482015261195960f21b6064820152608490fd5b5f80fd5b8680fd5b8480fd5b919050346105dd57806003193601126105dd57611010913561100b6001610ffa612618565b93838752816020528620015461275f565b6129cf565b5080f35b5050346101e257816003193601126101e25760065490516001600160a01b039091168152602090f35b83346110ac5760203660031901126110ac57611057612644565b61105f612a52565b6001600160a01b0316611073811515612d33565b600880546001600160a01b031916821790557fc8629dc1351bc7e12565c47ae39c1ac7d32a20462ccde555cb4f047185141c4c8280a280f35b80fd5b919050346105dd5760208360446110c536612688565b969193906110d1612a52565b6001600160a01b03908116946110e8861515612d98565b8751988996879563a9059cbb60e01b87528601526024850152165af19081156111455750611114575080f35b6020813d821161113d575b8161112c6020938361259b565b810103126101e25761101090612b9b565b3d915061111f565b513d84823e3d90fd5b919050346105dd5760203660031901126105dd5761116a612644565b611172612a52565b6001600160a01b0390811692831561121957600654918216928385146111ca5750506001600160a01b03191682176006557f4803049971913703d2dd43c06110dc7fad451e4603e9f485cbeebdda11263ab08380a380f35b906020608492519162461bcd60e51b8352820152602360248201527f5365637572697479546f6b656e3a20726567697374727920616c7265616479206044820152621cd95d60ea1b6064820152fd5b608490602084519162461bcd60e51b8352820152602e60248201527f5365637572697479546f6b656e3a2072656769737472792063616e6e6f74206260448201526d65207a65726f206164647265737360901b6064820152fd5b839150346101e257611284366126bd565b5f80516020612e40833981519152879694965260209360018552888820335f5285526112b560ff8a5f205416612ac3565b6001600160a01b0387811697908815611655576112d3861515612b1f565b60ff6003541661160b5760065416918a516330fe6dcd60e21b815287818381875afa908115611582578b916115d6575b5061158c578a516372c1cc1b60e11b81528181018a90528781602481875afa908115611582578b91611549575b506114ff575f80516020612f00833981519152881415806114e8575b61149e578a5163cb04072f60e01b81525f9181019182526001600160a01b039092166020820152604081018890526060818101879052999a9991928b92918491908290819060800103915afa80156114925761145b949392888a84611412947f6032e2468b0f94dfa63c61d6c8a84842a99c049263eae408a52b945020b6578d9c9d9e969482908392611461575b50875190815267ffffffffffffffff909116602082015284151560408201525f80516020612e20833981519152908060608101610350565b888a52600a8652808a20888b528652808a2061142f868254612c2a565b9055878a5260098652808a20611446868254612c2a565b90558080519687968752860152840191612c4b565b0390a380f35b90505f80516020612e20833981519152955061148b915060603d811161048d5761047b818361259b565b91956113da565b508851903d90823e3d90fd5b6104e9908b898b8d5f80516020612e2083398151915260608d838751915f80516020612ea083398151915283528201528387820152a45162461bcd60e51b81529182918201612ba8565b505f80516020612e6083398151915288141561134c565b6104e9908b898b8d5f80516020612e2083398151915260608d838751915f80516020612ec083398151915283528201528387820152a45162461bcd60e51b81529182918201612ba8565b90508781813d831161157b575b611560818361259b565b810103126115775761157190612b9b565b8c611330565b8a80fd5b503d611556565b8c513d8d823e3d90fd5b6104e9908b898b8d5f80516020612e2083398151915260608d838751915f80516020612ee083398151915283528201528387820152a45162461bcd60e51b81529182918201612b7a565b90508781813d8311611604575b6115ed818361259b565b81010312611577576115fe90612b9b565b8c611303565b503d6115e3565b6104e9838c8a8c8e5f80516020612e2083398151915260608e838751915f80516020612e8083398151915283528201528387820152a45162461bcd60e51b81529182918201612b7a565b8a5162461bcd60e51b8152808401889052602a60248201527f5365637572697479546f6b656e3a2063616e6e6f74206d696e7420746f207a65604482015269726f206164647265737360b01b6064820152608490fd5b5050346101e257816003193601126101e25760085490516001600160a01b039091168152602090f35b9050346105dd5760203660031901126105dd5760209282913581526009845220549051908152f35b5050346101e257816003193601126101e25751908152602090f35b9050346105dd57826003193601126105dd576008546001600160a01b039290831633036117a25750506007541661174d81612949565b50611757336127a1565b506007546001600160601b0360a01b3381831617600755600854166008558233911617907f6aef1fb5b23d0e109fc7f2b0601019e1edbacd177e31a441ec8548e8dd14f0f78380a380f35b906020608492519162461bcd60e51b8352820152602560248201527f5365637572697479546f6b656e3a206e6f742070656e64696e6720636f6e747260448201526437b63632b960d91b6064820152fd5b5050346101e257806003193601126101e25760209181906001600160a01b0361181a612644565b168152600a84528181206024358252845220549051908152f35b8284346110ac57806003193601126110ac575080515f9160055461185781612563565b808452906001908181169081156118ec5750600114611890575b50506118828261188c94038361259b565b51918291826125d1565b0390f35b60055f90815294507f036b6384b5eca791c62761152d0c79bb0604c104a5fb6f4eb0703f3154bb3db05b8286106118d4575050509181016020019161188282611871565b805460208787018101919091529095019481016118ba565b61188c965085925060209150926118829360ff191682840152151560051b8201019450611871565b9050346105dd5760203660031901126105dd5761192f612644565b90611938612a52565b6001600160a01b0382811693909190611952851515612d33565b3385146119a757505061196d906007541691610c0f83612949565b50600780546001600160a01b031916831790557f6aef1fb5b23d0e109fc7f2b0601019e1edbacd177e31a441ec8548e8dd14f0f78380a380f35b906020608492519162461bcd60e51b8352820152602c60248201527f5365637572697479546f6b656e3a2063616e6e6f74207365742073656c66206160448201526b399031b7b73a3937b63632b960a11b6064820152fd5b8284346110ac57816003193601126110ac5750611a46602092611a20612618565b90355f52600160205260405f209060018060a01b03165f5260205260ff60405f20541690565b90519015158152f35b5050346101e257816003193601126101e257905490516001600160a01b039091168152602090f35b9050346105dd57826003193601126105dd57611a91612a52565b6003549060ff8216611ad5575060ff1916600117600355513381527f62e78cea01bee320cd4e420270b5ea74000d11b0c9f74754ebdbfc544b05a25890602090a180f35b825163d93c066560e01b8152fd5b92915034611b8957611af436612688565b90611b00959295612a52565b6001600160a01b0390811695611b17871515612d98565b1694853b156105dd5760649083865197889485936323b872dd60e01b85523089860152602485015260448401525af18015611b7f57611b54578380f35b67ffffffffffffffff8311611b6c5750525f80808380f35b634e487b7160e01b845260419052602483fd5b82513d86823e3d90fd5b5050fd5b83346110ac57806003193601126110ac57611ba6612a52565b80546001600160a01b03198116825581906001600160a01b03167f8be0079c531659141344cd1fd0a4f28419497f9722a3daafe3b4186f6b6457e08280a380f35b5050346101e257602091826003193601126110ac57611c5790826001600160a01b03611c11612644565b1691828152600a86528181205f80516020612f008339815191528252865281812054928152600a86528181205f80516020612e6083398151915282528652205490612c2a565b9051908152f35b5050346101e257816003193601126101e25760209060ff6003541690519015158152f35b9050346105dd57826003193601126105dd57611c9c612a52565b6003549060ff821615611cde575060ff1916600355513381527f5db9ee0a495bf2e6ff9c91a7834c1ba4fdd244a5e8aa4e537bd38aeae4b073aa90602090a180f35b8251638dfc202b60e01b8152fd5b5050346101e257816003193601126101e257602090515f80516020612e608339815191528152f35b8383346101e257806003193601126101e257611d2e612618565b90336001600160a01b03831603611d4b57506110109192356129cf565b5163334bd91960e11b81528390fd5b5050346101e257816003193601126101e2576020905160128152f35b919050346105dd57806003193601126105dd576110109135611d9b6001610ffa612618565b6128be565b5050346101e257816003193601126101e257602090515f80516020612f008339815191528152f35b9050346105dd5760203660031901126105dd57816020936001923581528285522001549051908152f35b8383346101e25760c03660031901126101e2578235611e0f612618565b93611e1861262e565b92606435906084359060a43567ffffffffffffffff81116123c557611e40903690860161265a565b9190925f80516020612e40833981519152895260209560018752828a20338b528752611e7160ff848c205416612ac3565b6001600160a01b039a8b16988915612369578b87858d9e84169d8e1515611e9790612cd0565b611ea2831515612b1f565b8d8152600a8c528181208d82528c5220541015611ebe90612c6b565b831561231b5785156122cd5760ff600354166122805760065416918c85516330fe6dcd60e21b81528a818481885afa9182156121b2579161224b575b506121fe5784518d6372c1cc1b60e11b8083528d848401528b83602481895afa9283156121f45782936121bd575b50821561214f575b5050612102575f80516020612f008339815191528a1415806120eb575b61209e57845163cb04072f60e01b81525f9181019182526001600160a01b039092166020820152604081018a9052606081810189905291928d92918491908290819060800103915afa9182156120925792898c8c5f80516020612e20833981519152606096866120659b997fb46b328a33b8c06de51cd9ac3aabe366d0aef5e5db2bcaf09c1f2a5d45d62a0c9f9e9d9b9890829361206b575b50885191825267ffffffffffffffff9092166020820152901515604082015280606081015b0390a48a8d52600a88528c8a83822091528852818d2061202c888254612cc3565b90558b8d52600a88528c8a83822091528852818d2061204c888254612c2a565b9055815197889788528701528501526060840191612c4b565b0390a480f35b905061200b92506120899150893d811161048d5761047b818361259b565b92909190611fe6565b508351903d90823e3d90fd5b6104e99150848a8d8f5f80516020612e208339815191528f918e816060928851925f80516020612ea0833981519152845283015287820152a45162461bcd60e51b81529182918201612ba8565b505f80516020612e608339815191528a1415611f4d565b6104e99150848a8d8f5f80516020612e208339815191528f918e816060928851925f80516020612ec0833981519152845283015287820152a45162461bcd60e51b81529182918201612ba8565b90915086519081528d838201528a81602481885afa9182156121b25791612179575b508d8f611f30565b90508981813d83116121ab575b612190818361259b565b810103126121a7576121a190612b9b565b8e612171565b8d80fd5b503d612186565b8751903d90823e3d90fd5b9092508b81813d83116121ed575b6121d5818361259b565b810103126101e2576121e690612b9b565b915f611f28565b503d6121cb565b88513d84823e3d90fd5b6104e99150848a8d8f5f80516020612e208339815191528f918e816060928851925f80516020612ee0833981519152845283015287820152a45162461bcd60e51b81529182918201612b7a565b90508981813d8311612279575b612262818361259b565b810103126121a75761227390612b9b565b8e611efa565b503d612258565b50506104e99083898c8c8f60608d825f80516020612e20833981519152938851925f80516020612e80833981519152845283015287820152a45162461bcd60e51b81529182918201612b7a565b845162461bcd60e51b81528084018a9052602260248201527f5365637572697479546f6b656e3a20726561736f6e4e6f746520726571756972604482015261195960f21b6064820152608490fd5b845162461bcd60e51b81528084018a9052602260248201527f5365637572697479546f6b656e3a20726561736f6e436f646520726571756972604482015261195960f21b6064820152608490fd5b835162461bcd60e51b8152808301899052603060248201527f5365637572697479546f6b656e3a2063616e6e6f74207472616e73666572206660448201526f726f6d207a65726f206164647265737360801b6064820152608490fd5b8780fd5b5050346101e257816003193601126101e257611c57825f80516020612f0083398151915260209452600984528280822054915f80516020612e608339815191528152205490612c2a565b5050346101e257816003193601126101e257602090515f80516020612e408339815191528152f35b919050346105dd57826003193601126105dd578051918381549061245e82612563565b808652926001928084169081156124e55750600114612489575b61188c8686611882828b038361259b565b815294507f8a35acfbc15ff81a39ae7d344fd709f28e8600b4aa8c65c6b64bfe7fe36bd19b5b8286106124cd5750505061188282602061188c95820101945f612478565b805460208787018101919091529095019481016124af565b905061188c97508693506020925061188294915060ff191682840152151560051b820101945f612478565b8491346105dd5760203660031901126105dd573563ffffffff60e01b81168091036105dd5760209250637965db0b60e01b8114908115612552575b5015158152f35b6301ffc9a760e01b1490508361254b565b90600182811c92168015612591575b602083101461257d57565b634e487b7160e01b5f52602260045260245ffd5b91607f1691612572565b90601f8019910116810190811067ffffffffffffffff8211176125bd57604052565b634e487b7160e01b5f52604160045260245ffd5b602080825282518183018190529093925f5b82811061260457505060409293505f838284010152601f8019910116010190565b8181018601518482016040015285016125e3565b602435906001600160a01b0382168203610fc957565b604435906001600160a01b0382168203610fc957565b600435906001600160a01b0382168203610fc957565b9181601f84011215610fc95782359167ffffffffffffffff8311610fc95760208381860195010111610fc957565b6060906003190112610fc9576001600160a01b03906004358281168103610fc957916024359081168103610fc9579060443590565b906080600319830112610fc957600435916024356001600160a01b0381168103610fc95791604435916064359067ffffffffffffffff8211610fc9576127059160040161265a565b9091565b81601f82011215610fc95780359067ffffffffffffffff82116125bd576040519261273e601f8401601f19166020018561259b565b82845260208383010111610fc957815f926020809301838601378301015290565b5f81815260016020908152604080832033845290915290205460ff16156127835750565b6044906040519063e2517d3f60e01b82523360048301526024820152fd5b6127aa81612de3565b612829576001600160a01b03165f8181527fc3eac9ead20d697480ab489ced881761c627fd3281937449e4d4d7fbf9faa2cd60205260408120805460ff191660011790553391905f80516020612e40833981519152907f2f8788117e7eff1d82e926ec794901d17c78024a50270940304540a733656f0d9080a4600190565b505f90565b6001600160a01b03165f8181527fa6eef7e35abe7026729641147f7915573c7e97b47efa546f5f6e3230263bcb49602052604081205490919060ff166128ba5781805260016020526040822081835260205260408220600160ff1982541617905533917f2f8788117e7eff1d82e926ec794901d17c78024a50270940304540a733656f0d8180a4600190565b5090565b906128e881835f52600160205260405f209060018060a01b03165f5260205260ff60405f20541690565b612943575f918083526001602052604083209160018060a01b03169182845260205260408320600160ff198254161790557f2f8788117e7eff1d82e926ec794901d17c78024a50270940304540a733656f0d339380a4600190565b50505f90565b61295281612de3565b15612829576001600160a01b03165f8181527fc3eac9ead20d697480ab489ced881761c627fd3281937449e4d4d7fbf9faa2cd60205260408120805460ff191690553391905f80516020612e40833981519152907ff6391f5c32d9c69d2a47ea670b442974b53935d1edc7fd64eb21e047a839171b9080a4600190565b906129f981835f52600160205260405f209060018060a01b03165f5260205260ff60405f20541690565b15612943575f918083526001602052604083209160018060a01b0316918284526020526040832060ff1981541690557ff6391f5c32d9c69d2a47ea670b442974b53935d1edc7fd64eb21e047a839171b339380a4600190565b5f546001600160a01b03163303612a6557565b60405163118cdaa760e01b8152336004820152602490fd5b5f80546001600160a01b039283166001600160a01b03198216811783559216907f8be0079c531659141344cd1fd0a4f28419497f9722a3daafe3b4186f6b6457e09080a3565b15612aca57565b60405162461bcd60e51b815260206004820152602760248201527f5365637572697479546f6b656e3a2063616c6c6572206973206e6f7420636f6e6044820152663a3937b63632b960c91b6064820152608490fd5b15612b2657565b60405162461bcd60e51b815260206004820152602660248201527f5365637572697479546f6b656e3a20616d6f756e74206d75737420626520706f60448201526573697469766560d01b6064820152608490fd5b60609060208152600660208201526514105554d15160d21b60408201520190565b51908115158203610fc957565b60609060208152601460208201527321a7a6a82624a0a721a2afab24a7a620aa24a7a760611b60408201520190565b90816060910312610fc957612beb81612b9b565b916040602083015192015167ffffffffffffffff81168103610fc95790565b15612c1157565b60405162461bcd60e51b8152806104e960048201612ba8565b91908201809211612c3757565b634e487b7160e01b5f52601160045260245ffd5b908060209392818452848401375f828201840152601f01601f1916010190565b15612c7257565b60405162461bcd60e51b815260206004820152602360248201527f5365637572697479546f6b656e3a20696e73756666696369656e742062616c616044820152626e636560e81b6064820152608490fd5b91908203918211612c3757565b15612cd757565b60405162461bcd60e51b815260206004820152602e60248201527f5365637572697479546f6b656e3a2063616e6e6f74207472616e73666572207460448201526d6f207a65726f206164647265737360901b6064820152608490fd5b15612d3a57565b60405162461bcd60e51b815260206004820152603060248201527f5365637572697479546f6b656e3a20636f6e74726f6c6c65722063616e6e6f7460448201526f206265207a65726f206164647265737360801b6064820152608490fd5b15612d9f57565b606460405162461bcd60e51b815260206004820152602060248201527f5365637572697479546f6b656e3a20696e76616c696420726563697069656e746044820152fd5b6001600160a01b03165f9081527fc3eac9ead20d697480ab489ced881761c627fd3281937449e4d4d7fbf9faa2cd602052604090205460ff169056fe8fb355a0bf7f1486f4eb1539add1e8842daf6d6e61ede2ef837e0852fe18ef017b765e0e932d348852a6f810bfa1ab891e259123f02db8cdcde614c5702233574a7e0eba24b6b787bf68192ab18d9a325f89c2324c942864c501565bb41a0ba04e02dd11d88cb397adbe714f037f7663e819b2ef2f779b943c2d21eebdcb6602e3b485aa0881e18a8b9fb6515965a1bd9a98a15d1dc9ed158e950f89baa26bfc31a2ca2c2152755c56924038ccbb99cf9bd48733649fe856f91db29ce18126aee371244883477b51ac7a2cca6cc9ba95dbf7f1f24a4b78b255f44c20de05640e6a03b0013265372b884812b0d3773c026802ac22c12c90268815d185b1917b18a2646970667358221220cd696d930a694f85c24ce30f0d264a6613e79ee4938eb9307917ffad5775523464736f6c63430008140033","linkReferences":{}},"methodIdentifiers":{"CONTROLLER_ROLE()":"092c5b3b","DEFAULT_ADMIN_ROLE()":"a217fddf","REG_D()":"2de2039b","REG_S()":"3a9482b5","acceptController()":"9bc21c0c","balanceOf(address)":"70a08231","balanceOfByPartition(address,bytes32)":"9b03b4eb","burnByPartition(bytes32,address,uint256,bytes)":"ebe614a1","complianceRegistry()":"cac89c5c","controller()":"f77c4791","decimals()":"313ce567","forceTransfer(bytes32,address,address,uint256,bytes32,string)":"1be0003f","getRoleAdmin(bytes32)":"248a9ca3","grantRole(bytes32,address)":"2f2ff15d","hasRole(bytes32,address)":"91d14854","initialize(string,string,address,address,address)":"db0ed6a0","mintByPartition(bytes32,address,uint256,bytes)":"a6f4de2d","name()":"06fdde03","owner()":"8da5cb5b","pause()":"8456cb59","paused()":"5c975abb","pendingController()":"a2cab3a1","proposeController(address)":"c8f6ec55","renounceOwnership()":"715018a6","renounceRole(bytes32,address)":"36568abe","rescueERC20(address,address,uint256)":"b2118a8d","rescueERC721(address,address,uint256)":"7df325e1","revokeRole(bytes32,address)":"d547741f","setController(address)":"92eefe9b","setRegistry(address)":"a91ee0dc","supportsInterface(bytes4)":"01ffc9a7","symbol()":"95d89b41","totalSupply()":"18160ddd","totalSupplyByPartition(bytes32)":"a26734dc","transferByPartition(bytes32,address,uint256,bytes)":"f3d490db","transferOwnership(address)":"f2fde38b","unpause()":"3f4ba83a"},"id":33}