{"abi":[{"type":"constructor","inputs":[{"name":"_implementation","type":"address","internalType":"contract PayoutDistributor"}],"stateMutability":"nonpayable"},{"type":"function","name":"deployDistributor","inputs":[{"name":"token","type":"address","internalType":"address"},{"name":"owner","type":"address","internalType":"address"}],"outputs":[{"name":"distributor","type":"address","internalType":"contract PayoutDistributor"}],"stateMutability":"nonpayable"},{"type":"function","name":"deployedDistributors","inputs":[{"name":"","type":"uint256","internalType":"uint256"}],"outputs":[{"name":"","type":"address","internalType":"contract PayoutDistributor"}],"stateMutability":"view"},{"type":"function","name":"distributorInfo","inputs":[{"name":"","type":"address","internalType":"address"}],"outputs":[{"name":"token","type":"address","internalType":"address"},{"name":"owner","type":"address","internalType":"address"},{"name":"deploymentTime","type":"uint256","internalType":"uint256"}],"stateMutability":"view"},{"type":"function","name":"getAllDistributors","inputs":[],"outputs":[{"name":"","type":"address[]","internalType":"contract PayoutDistributor[]"}],"stateMutability":"view"},{"type":"function","name":"getDeploymentCount","inputs":[],"outputs":[{"name":"","type":"uint256","internalType":"uint256"}],"stateMutability":"view"},{"type":"function","name":"getDistributorByIndex","inputs":[{"name":"index","type":"uint256","internalType":"uint256"}],"outputs":[{"name":"distributor","type":"address","internalType":"contract PayoutDistributor"},{"name":"info","type":"tuple","internalType":"struct PayoutDistributorFactory.DistributorInfo","components":[{"name":"token","type":"address","internalType":"address"},{"name":"owner","type":"address","internalType":"address"},{"name":"deploymentTime","type":"uint256","internalType":"uint256"}]}],"stateMutability":"view"},{"type":"function","name":"getDistributorsForToken","inputs":[{"name":"token","type":"address","internalType":"address"}],"outputs":[{"name":"distributors","type":"address[]","internalType":"contract PayoutDistributor[]"}],"stateMutability":"view"},{"type":"function","name":"getImplementation","inputs":[],"outputs":[{"name":"","type":"address","internalType":"address"}],"stateMutability":"view"},{"type":"function","name":"implementation","inputs":[],"outputs":[{"name":"","type":"address","internalType":"contract PayoutDistributor"}],"stateMutability":"view"},{"type":"function","name":"isDeployedDistributor","inputs":[{"name":"distributor","type":"address","internalType":"address"}],"outputs":[{"name":"","type":"bool","internalType":"bool"}],"stateMutability":"view"},{"type":"function","name":"owner","inputs":[],"outputs":[{"name":"","type":"address","internalType":"address"}],"stateMutability":"view"},{"type":"function","name":"renounceOwnership","inputs":[],"outputs":[],"stateMutability":"nonpayable"},{"type":"function","name":"transferOwnership","inputs":[{"name":"newOwner","type":"address","internalType":"address"}],"outputs":[],"stateMutability":"nonpayable"},{"type":"event","name":"DistributorDeployed","inputs":[{"name":"distributor","type":"address","indexed":true,"internalType":"address"},{"name":"token","type":"address","indexed":true,"internalType":"address"},{"name":"owner","type":"address","indexed":true,"internalType":"address"},{"name":"deploymentTime","type":"uint256","indexed":false,"internalType":"uint256"}],"anonymous":false},{"type":"event","name":"OwnershipTransferred","inputs":[{"name":"previousOwner","type":"address","indexed":true,"internalType":"address"},{"name":"newOwner","type":"address","indexed":true,"internalType":"address"}],"anonymous":false},{"type":"error","name":"OwnableInvalidOwner","inputs":[{"name":"owner","type":"address","internalType":"address"}]},{"type":"error","name":"OwnableUnauthorizedAccount","inputs":[{"name":"account","type":"address","internalType":"address"}]}],"bytecode":{"object":"0x60a03461012357601f610cd138819003918201601f19168301916001600160401b038311848410176101275780849260209460405283398101031261012357516001600160a01b0380821680830361012357331561010b575f543360018060a01b03198216175f55604051923391167f8be0079c531659141344cd1fd0a4f28419497f9722a3daafe3b4186f6b6457e05f80a3156100ba5750608052604051610b95908161013c823960805181818161048601526109d50152f35b62461bcd60e51b815260206004820152602660248201527f466163746f72793a20696d706c656d656e746174696f6e2063616e6e6f74206260448201526565207a65726f60d01b6064820152608490fd5b604051631e4fbdf760e01b81525f6004820152602490fd5b5f80fd5b634e487b7160e01b5f52604160045260245ffdfe60806040526004361015610011575f80fd5b5f3560e01c806334aa2083146100df5780633dfedc52146100da5780634cb8dd75146100d55780635c60da1b146100bc578063715018a6146100d0578063736a2e20146100cb5780638da5cb5b146100c65780638e24c34b146100c1578063aaf10f42146100bc578063b3eedf12146100b7578063d60cd179146100b2578063f2fde38b146100ad5763f732e795146100a8575f80fd5b6107cb565b61070a565b610634565b610605565b610471565b61058c565b610565565b610512565b6104b5565b61032a565b610151565b610114565b600435906001600160a01b03821682036100fa57565b5f80fd5b602435906001600160a01b03821682036100fa57565b346100fa5760203660031901126100fa576001600160a01b036101356100e4565b165f5260026020526020600260405f2001541515604051908152f35b346100fa5760403660031901126100fa5761016a6100e4565b6101726100fe565b61017a61080c565b6001600160a01b0382811680156102a25761024d61029e9461020e848616946101a4861515610837565b6101f26101b188856109b3565b6020815191015ff0918216976101c8891515610883565b6101e26101d3610926565b6001600160a01b039096168652565b6001600160a01b03166020850152565b42604084015260018060a01b03165f52600260205260405f2090565b815181546001600160a01b039182166001600160a01b031991821617835560208401516001840180549190931691161790559060029060400151910155565b61025683610935565b60405142815283907fda6f23fee0c1260a77ace4de95063b09b293c370f96685903651312952acbede90602090a46040516001600160a01b0390911681529081906020820190565b0390f35b60405162461bcd60e51b815260206004820152601d60248201527f466163746f72793a20746f6b656e2063616e6e6f74206265207a65726f0000006044820152606490fd5b602090816040818301928281528551809452019301915f5b82811061030d575050505090565b83516001600160a01b0316855293810193928101926001016102ff565b346100fa5760203660031901126100fa576103436100e4565b6001546001600160a01b03918216915f805b838110610430575061036690610af9565b925f91825b848110610380576040518061029e88826102e7565b82826103de6103d16103b86103ac610397876107a4565b905460039190911b1c6001600160a01b031690565b6001600160a01b031690565b6001600160a01b03165f90815260026020526040902090565b546001600160a01b031690565b16146103f3575b6103ee90610abf565b61036b565b926104286103ee9161042361040a610397886107a4565b610414838b610b2b565b6001600160a01b039091169052565b610abf565b9390506103e5565b84836104476103d16103b86103ac610397876107a4565b161461045c575b61045790610abf565b610355565b9061046961045791610abf565b91905061044e565b346100fa575f3660031901126100fa576040517f00000000000000000000000000000000000000000000000000000000000000006001600160a01b03168152602090f35b346100fa575f8060031936011261050f576104ce61080c565b80546001600160a01b03198116825581906001600160a01b03167f8be0079c531659141344cd1fd0a4f28419497f9722a3daafe3b4186f6b6457e08280a380f35b80fd5b346100fa5760203660031901126100fa5760606001600160a01b03806105366100e4565b165f52600260205260405f20600282825416926001830154169101549060405192835260208301526040820152f35b346100fa575f3660031901126100fa575f546040516001600160a01b039091168152602090f35b346100fa575f3660031901126100fa5760405180600191825492838252602080920193815f525f80516020610b40833981519152925f905b8282106105e75761029e866105db818a0382610904565b604051918291826102e7565b84546001600160a01b031687529586019593830193908301906105c4565b346100fa575f3660031901126100fa576020600154604051908152f35b60209060031901126100fa5760043590565b346100fa5761064236610622565b5f60408051610650816108e3565b82815282602082015201526001548110156106c557610397610671916107a4565b6001600160a01b0381165f90815260026020526040902061069190610a8b565b604080516001600160a01b039384168152825184166020808301919091528301519093168382015201516060820152608090f35b60405162461bcd60e51b815260206004820152601c60248201527f466163746f72793a20696e646578206f7574206f6620626f756e6473000000006044820152606490fd5b346100fa5760203660031901126100fa576107236100e4565b61072b61080c565b6001600160a01b039081168015610778575f80546001600160a01b03198116831782559092167f8be0079c531659141344cd1fd0a4f28419497f9722a3daafe3b4186f6b6457e08380a380f35b604051631e4fbdf760e01b81525f6004820152602490fd5b634e487b7160e01b5f52603260045260245ffd5b6001548110156107c65760015f525f80516020610b4083398151915201905f90565b610790565b346100fa576107d936610622565b6001548110156100fa5760015f525f80516020610b4083398151915201546040516001600160a01b039091168152602090f35b5f546001600160a01b0316330361081f57565b60405163118cdaa760e01b8152336004820152602490fd5b1561083e57565b60405162461bcd60e51b815260206004820152601d60248201527f466163746f72793a206f776e65722063616e6e6f74206265207a65726f0000006044820152606490fd5b1561088a57565b60405162461bcd60e51b815260206004820152601a60248201527f466163746f72793a206465706c6f796d656e74206661696c65640000000000006044820152606490fd5b634e487b7160e01b5f52604160045260245ffd5b6060810190811067ffffffffffffffff8211176108ff57604052565b6108cf565b90601f8019910116810190811067ffffffffffffffff8211176108ff57604052565b60405190610933826108e3565b565b600154680100000000000000008110156108ff5760018101806001558110156107c65760015f525f80516020610b408339815191520180546001600160a01b0319166001600160a01b03909216919091179055565b908151915f5b8381106109a0575050015f815290565b8060208092840101518185015201610990565b604051733d602d80600a3d3981f3363d3d373d3d3d363d7360601b60208201527f000000000000000000000000000000000000000000000000000000000000000060601b6bffffffffffffffffffffffff191660348201526e5af43d82803e903d91602b57fd5bf360881b604882015260378152610a7492610a8892610a7a9190610a3d846108e3565b604080516001600160a01b03928316602082015292909116828201528152610a64816108e3565b604051948593602085019061098a565b9061098a565b03601f198101835282610904565b90565b90604051610a98816108e3565b82546001600160a01b03908116825260018401541660208201526002909201546040830152565b5f198114610acd5760010190565b634e487b7160e01b5f52601160045260245ffd5b67ffffffffffffffff81116108ff5760051b60200190565b90610b0382610ae1565b610b106040519182610904565b8281528092610b21601f1991610ae1565b0190602036910137565b80518210156107c65760209160051b01019056feb10e2d527612073b26eecdfd717e6a320cf44b4afac2b0732d9fcbe2b7fa0cf6a2646970667358221220e63cbc85a5c674099207e0e59c85cb8096e8cd61778618c9dbb755f6cb4c727d64736f6c63430008140033","linkReferences":{}},"methodIdentifiers":{"deployDistributor(address,address)":"3dfedc52","deployedDistributors(uint256)":"f732e795","distributorInfo(address)":"736a2e20","getAllDistributors()":"8e24c34b","getDeploymentCount()":"b3eedf12","getDistributorByIndex(uint256)":"d60cd179","getDistributorsForToken(address)":"4cb8dd75","getImplementation()":"aaf10f42","implementation()":"5c60da1b","isDeployedDistributor(address)":"34aa2083","owner()":"8da5cb5b","renounceOwnership()":"715018a6","transferOwnership(address)":"f2fde38b"},"id":34}