{"abi":[{"type":"constructor","inputs":[],"stateMutability":"nonpayable"},{"type":"function","name":"DEFAULT_ADMIN_ROLE","inputs":[],"outputs":[{"name":"","type":"bytes32","internalType":"bytes32"}],"stateMutability":"view"},{"type":"function","name":"ORACLE_ROLE","inputs":[],"outputs":[{"name":"","type":"bytes32","internalType":"bytes32"}],"stateMutability":"view"},{"type":"function","name":"getRoleAdmin","inputs":[{"name":"role","type":"bytes32","internalType":"bytes32"}],"outputs":[{"name":"","type":"bytes32","internalType":"bytes32"}],"stateMutability":"view"},{"type":"function","name":"grantRole","inputs":[{"name":"role","type":"bytes32","internalType":"bytes32"},{"name":"account","type":"address","internalType":"address"}],"outputs":[],"stateMutability":"nonpayable"},{"type":"function","name":"hasRole","inputs":[{"name":"role","type":"bytes32","internalType":"bytes32"},{"name":"account","type":"address","internalType":"address"}],"outputs":[{"name":"","type":"bool","internalType":"bool"}],"stateMutability":"view"},{"type":"function","name":"renounceRole","inputs":[{"name":"role","type":"bytes32","internalType":"bytes32"},{"name":"callerConfirmation","type":"address","internalType":"address"}],"outputs":[],"stateMutability":"nonpayable"},{"type":"function","name":"revokeRole","inputs":[{"name":"role","type":"bytes32","internalType":"bytes32"},{"name":"account","type":"address","internalType":"address"}],"outputs":[],"stateMutability":"nonpayable"},{"type":"function","name":"supportsInterface","inputs":[{"name":"interfaceId","type":"bytes4","internalType":"bytes4"}],"outputs":[{"name":"","type":"bool","internalType":"bool"}],"stateMutability":"view"},{"type":"event","name":"RoleAdminChanged","inputs":[{"name":"role","type":"bytes32","indexed":true,"internalType":"bytes32"},{"name":"previousAdminRole","type":"bytes32","indexed":true,"internalType":"bytes32"},{"name":"newAdminRole","type":"bytes32","indexed":true,"internalType":"bytes32"}],"anonymous":false},{"type":"event","name":"RoleGranted","inputs":[{"name":"role","type":"bytes32","indexed":true,"internalType":"bytes32"},{"name":"account","type":"address","indexed":true,"internalType":"address"},{"name":"sender","type":"address","indexed":true,"internalType":"address"}],"anonymous":false},{"type":"event","name":"RoleRevoked","inputs":[{"name":"role","type":"bytes32","indexed":true,"internalType":"bytes32"},{"name":"account","type":"address","indexed":true,"internalType":"address"},{"name":"sender","type":"address","indexed":true,"internalType":"address"}],"anonymous":false},{"type":"error","name":"AccessControlBadConfirmation","inputs":[]},{"type":"error","name":"AccessControlUnauthorizedAccount","inputs":[{"name":"account","type":"address","internalType":"address"},{"name":"neededRole","type":"bytes32","internalType":"bytes32"}]}],"bytecode":{"object":"0x60806040523461002c5761001233610030565b5061001c336100ac565b506040516103a8908161014b8239f35b5f80fd5b6001600160a01b03165f8181527fad3228b676f7d3cd4284a5443f17f1962b36e491b30a40b2405849e597ba5fb5602052604081205490919060ff166100a857818052816020526040822081835260205260408220600160ff1982541617905533915f805160206104f38339815191528180a4600190565b5090565b6001600160a01b03165f8181527fa629f6981c2f6895a67dc766e8e03ff72d04a413d0d8773a3ca56e9e474032c160205260408120549091907f68e79a7bf1e0bc45d0a330c573bc367f9cf464fd326078812f301165fbda4ef19060ff1661014557808352826020526040832082845260205260408320600160ff198254161790555f805160206104f3833981519152339380a4600190565b50509056fe608060408181526004361015610013575f80fd5b5f91823560e01c90816301ffc9a7146101c15750806307e2cea514610187578063248a9ca31461015d5780632f2ff15d1461014057806336568abe1461010157806391d14854146100c8578063a217fddf146100ae5763d547741f14610077575f80fd5b346100aa5760016100a6916100a161008e3661021a565b9390928387528660205286200154610244565b6102ff565b5080f35b5080fd5b50346100aa57816003193601126100aa5751908152602090f35b50346100aa5760ff816020936100dd3661021a565b9082528186528282206001600160a01b039091168252855220549151911615158152f35b50903461013d576101113661021a565b90336001600160a01b0383160361012c57906100a6916102ff565b835163334bd91960e11b8152600490fd5b80fd5b50346100aa5760016100a69161015861008e3661021a565b610283565b50346100aa5760203660031901126100aa5760018160209360043581528085522001549051908152f35b50346100aa57816003193601126100aa57602090517f68e79a7bf1e0bc45d0a330c573bc367f9cf464fd326078812f301165fbda4ef18152f35b8390346100aa5760203660031901126100aa5760043563ffffffff60e01b81168091036102165760209250637965db0b60e01b8114908115610205575b5015158152f35b6301ffc9a760e01b149050836101fe565b8280fd5b604090600319011261024057600435906024356001600160a01b03811681036102405790565b5f80fd5b805f525f60205260405f20335f5260205260ff60405f205416156102655750565b6044906040519063e2517d3f60e01b82523360048301526024820152fd5b905f9180835282602052604083209160018060a01b03169182845260205260ff604084205416155f146102fa57808352826020526040832082845260205260408320600160ff198254161790557f2f8788117e7eff1d82e926ec794901d17c78024a50270940304540a733656f0d339380a4600190565b505090565b905f9180835282602052604083209160018060a01b03169182845260205260ff6040842054165f146102fa5780835282602052604083208284526020526040832060ff1981541690557ff6391f5c32d9c69d2a47ea670b442974b53935d1edc7fd64eb21e047a839171b339380a460019056fea2646970667358221220b66a7c1cf024df1647f44aa6ca6cfbaae9c6865c5573279c5f65ae6cf07c15e364736f6c634300081400332f8788117e7eff1d82e926ec794901d17c78024a50270940304540a733656f0d","linkReferences":{}},"methodIdentifiers":{"DEFAULT_ADMIN_ROLE()":"a217fddf","ORACLE_ROLE()":"07e2cea5","getRoleAdmin(bytes32)":"248a9ca3","grantRole(bytes32,address)":"2f2ff15d","hasRole(bytes32,address)":"91d14854","renounceRole(bytes32,address)":"36568abe","revokeRole(bytes32,address)":"d547741f","supportsInterface(bytes4)":"01ffc9a7"},"id":44}