{"abi":[{"type":"function","name":"DEFAULT_ADMIN_ROLE","inputs":[],"outputs":[{"name":"","type":"bytes32","internalType":"bytes32"}],"stateMutability":"view"},{"type":"function","name":"ERR_CLAIMS_EXPIRED","inputs":[],"outputs":[{"name":"","type":"bytes32","internalType":"bytes32"}],"stateMutability":"view"},{"type":"function","name":"ERR_COMPLIANCE_PAUSED","inputs":[],"outputs":[{"name":"","type":"bytes32","internalType":"bytes32"}],"stateMutability":"view"},{"type":"function","name":"ERR_DESTINATION_NOT_ACCREDITED_REG_D","inputs":[],"outputs":[{"name":"","type":"bytes32","internalType":"bytes32"}],"stateMutability":"view"},{"type":"function","name":"ERR_FROZEN","inputs":[],"outputs":[{"name":"","type":"bytes32","internalType":"bytes32"}],"stateMutability":"view"},{"type":"function","name":"ERR_INTERNAL_POLICY","inputs":[],"outputs":[{"name":"","type":"bytes32","internalType":"bytes32"}],"stateMutability":"view"},{"type":"function","name":"ERR_LOCKUP_ACTIVE","inputs":[],"outputs":[{"name":"","type":"bytes32","internalType":"bytes32"}],"stateMutability":"view"},{"type":"function","name":"ERR_NOT_WHITELISTED","inputs":[],"outputs":[{"name":"","type":"bytes32","internalType":"bytes32"}],"stateMutability":"view"},{"type":"function","name":"ERR_OK","inputs":[],"outputs":[{"name":"","type":"bytes32","internalType":"bytes32"}],"stateMutability":"view"},{"type":"function","name":"ERR_PARTITION_CROSS_NOT_ALLOWED","inputs":[],"outputs":[{"name":"","type":"bytes32","internalType":"bytes32"}],"stateMutability":"view"},{"type":"function","name":"ERR_PAUSED","inputs":[],"outputs":[{"name":"","type":"bytes32","internalType":"bytes32"}],"stateMutability":"view"},{"type":"function","name":"ERR_REG_S_US_PERSON_RESTRICTED","inputs":[],"outputs":[{"name":"","type":"bytes32","internalType":"bytes32"}],"stateMutability":"view"},{"type":"function","name":"ERR_REVOKED","inputs":[],"outputs":[{"name":"","type":"bytes32","internalType":"bytes32"}],"stateMutability":"view"},{"type":"function","name":"ERR_SOURCE_NOT_ACCREDITED_REG_D","inputs":[],"outputs":[{"name":"","type":"bytes32","internalType":"bytes32"}],"stateMutability":"view"},{"type":"function","name":"ERR_UNKNOWN_PARTITION","inputs":[],"outputs":[{"name":"","type":"bytes32","internalType":"bytes32"}],"stateMutability":"view"},{"type":"function","name":"ORACLE_ROLE","inputs":[],"outputs":[{"name":"","type":"bytes32","internalType":"bytes32"}],"stateMutability":"view"},{"type":"function","name":"claims","inputs":[{"name":"","type":"address","internalType":"address"}],"outputs":[{"name":"countryCode","type":"bytes2","internalType":"bytes2"},{"name":"usTaxResident","type":"bool","internalType":"bool"},{"name":"accredited","type":"bool","internalType":"bool"},{"name":"lockupUntil","type":"uint64","internalType":"uint64"},{"name":"revoked","type":"bool","internalType":"bool"},{"name":"expiresAt","type":"uint64","internalType":"uint64"}],"stateMutability":"view"},{"type":"function","name":"freeze","inputs":[{"name":"wallet","type":"address","internalType":"address"}],"outputs":[],"stateMutability":"nonpayable"},{"type":"function","name":"frozen","inputs":[{"name":"","type":"address","internalType":"address"}],"outputs":[{"name":"","type":"bool","internalType":"bool"}],"stateMutability":"view"},{"type":"function","name":"getClaims","inputs":[{"name":"wallet","type":"address","internalType":"address"}],"outputs":[{"name":"","type":"tuple","internalType":"struct IComplianceRegistry.Claims","components":[{"name":"countryCode","type":"bytes2","internalType":"bytes2"},{"name":"usTaxResident","type":"bool","internalType":"bool"},{"name":"accredited","type":"bool","internalType":"bool"},{"name":"lockupUntil","type":"uint64","internalType":"uint64"},{"name":"revoked","type":"bool","internalType":"bool"},{"name":"expiresAt","type":"uint64","internalType":"uint64"}]}],"stateMutability":"view"},{"type":"function","name":"getRoleAdmin","inputs":[{"name":"role","type":"bytes32","internalType":"bytes32"}],"outputs":[{"name":"","type":"bytes32","internalType":"bytes32"}],"stateMutability":"view"},{"type":"function","name":"globalCompliancePaused","inputs":[],"outputs":[{"name":"","type":"bool","internalType":"bool"}],"stateMutability":"view"},{"type":"function","name":"grantRole","inputs":[{"name":"role","type":"bytes32","internalType":"bytes32"},{"name":"account","type":"address","internalType":"address"}],"outputs":[],"stateMutability":"nonpayable"},{"type":"function","name":"hasRole","inputs":[{"name":"role","type":"bytes32","internalType":"bytes32"},{"name":"account","type":"address","internalType":"address"}],"outputs":[{"name":"","type":"bool","internalType":"bool"}],"stateMutability":"view"},{"type":"function","name":"isFrozen","inputs":[{"name":"wallet","type":"address","internalType":"address"}],"outputs":[{"name":"","type":"bool","internalType":"bool"}],"stateMutability":"view"},{"type":"function","name":"isRevoked","inputs":[{"name":"","type":"address","internalType":"address"}],"outputs":[{"name":"","type":"bool","internalType":"bool"}],"stateMutability":"view"},{"type":"function","name":"isTransferAllowed","inputs":[{"name":"from","type":"address","internalType":"address"},{"name":"to","type":"address","internalType":"address"},{"name":"partition","type":"bytes32","internalType":"bytes32"},{"name":"amount","type":"uint256","internalType":"uint256"}],"outputs":[{"name":"ok","type":"bool","internalType":"bool"},{"name":"reasonCode","type":"bytes32","internalType":"bytes32"},{"name":"lockupUntil","type":"uint64","internalType":"uint64"}],"stateMutability":"view"},{"type":"function","name":"isWalletWhitelisted","inputs":[{"name":"wallet","type":"address","internalType":"address"}],"outputs":[{"name":"","type":"bool","internalType":"bool"}],"stateMutability":"view"},{"type":"function","name":"isWhitelisted","inputs":[{"name":"","type":"address","internalType":"address"}],"outputs":[{"name":"","type":"bool","internalType":"bool"}],"stateMutability":"view"},{"type":"function","name":"renounceRole","inputs":[{"name":"role","type":"bytes32","internalType":"bytes32"},{"name":"callerConfirmation","type":"address","internalType":"address"}],"outputs":[],"stateMutability":"nonpayable"},{"type":"function","name":"revoke","inputs":[{"name":"wallet","type":"address","internalType":"address"}],"outputs":[],"stateMutability":"nonpayable"},{"type":"function","name":"revokeRole","inputs":[{"name":"role","type":"bytes32","internalType":"bytes32"},{"name":"account","type":"address","internalType":"address"}],"outputs":[],"stateMutability":"nonpayable"},{"type":"function","name":"setClaims","inputs":[{"name":"wallet","type":"address","internalType":"address"},{"name":"newClaims","type":"tuple","internalType":"struct IComplianceRegistry.Claims","components":[{"name":"countryCode","type":"bytes2","internalType":"bytes2"},{"name":"usTaxResident","type":"bool","internalType":"bool"},{"name":"accredited","type":"bool","internalType":"bool"},{"name":"lockupUntil","type":"uint64","internalType":"uint64"},{"name":"revoked","type":"bool","internalType":"bool"},{"name":"expiresAt","type":"uint64","internalType":"uint64"}]}],"outputs":[],"stateMutability":"nonpayable"},{"type":"function","name":"setGlobalCompliancePaused","inputs":[{"name":"paused","type":"bool","internalType":"bool"}],"outputs":[],"stateMutability":"nonpayable"},{"type":"function","name":"supportsInterface","inputs":[{"name":"interfaceId","type":"bytes4","internalType":"bytes4"}],"outputs":[{"name":"","type":"bool","internalType":"bool"}],"stateMutability":"view"},{"type":"function","name":"unfreeze","inputs":[{"name":"wallet","type":"address","internalType":"address"}],"outputs":[],"stateMutability":"nonpayable"},{"type":"function","name":"whitelist","inputs":[{"name":"wallet","type":"address","internalType":"address"}],"outputs":[],"stateMutability":"nonpayable"},{"type":"event","name":"AccountFrozen","inputs":[{"name":"wallet","type":"address","indexed":true,"internalType":"address"}],"anonymous":false},{"type":"event","name":"AccountUnfrozen","inputs":[{"name":"wallet","type":"address","indexed":true,"internalType":"address"}],"anonymous":false},{"type":"event","name":"ClaimsSet","inputs":[{"name":"wallet","type":"address","indexed":true,"internalType":"address"},{"name":"claims","type":"tuple","indexed":false,"internalType":"struct IComplianceRegistry.Claims","components":[{"name":"countryCode","type":"bytes2","internalType":"bytes2"},{"name":"usTaxResident","type":"bool","internalType":"bool"},{"name":"accredited","type":"bool","internalType":"bool"},{"name":"lockupUntil","type":"uint64","internalType":"uint64"},{"name":"revoked","type":"bool","internalType":"bool"},{"name":"expiresAt","type":"uint64","internalType":"uint64"}]}],"anonymous":false},{"type":"event","name":"GlobalCompliancePausedSet","inputs":[{"name":"paused","type":"bool","indexed":false,"internalType":"bool"}],"anonymous":false},{"type":"event","name":"RoleAdminChanged","inputs":[{"name":"role","type":"bytes32","indexed":true,"internalType":"bytes32"},{"name":"previousAdminRole","type":"bytes32","indexed":true,"internalType":"bytes32"},{"name":"newAdminRole","type":"bytes32","indexed":true,"internalType":"bytes32"}],"anonymous":false},{"type":"event","name":"RoleGranted","inputs":[{"name":"role","type":"bytes32","indexed":true,"internalType":"bytes32"},{"name":"account","type":"address","indexed":true,"internalType":"address"},{"name":"sender","type":"address","indexed":true,"internalType":"address"}],"anonymous":false},{"type":"event","name":"RoleRevoked","inputs":[{"name":"role","type":"bytes32","indexed":true,"internalType":"bytes32"},{"name":"account","type":"address","indexed":true,"internalType":"address"},{"name":"sender","type":"address","indexed":true,"internalType":"address"}],"anonymous":false},{"type":"event","name":"WalletRevoked","inputs":[{"name":"wallet","type":"address","indexed":true,"internalType":"address"}],"anonymous":false},{"type":"event","name":"WalletWhitelisted","inputs":[{"name":"wallet","type":"address","indexed":true,"internalType":"address"}],"anonymous":false},{"type":"error","name":"AccessControlBadConfirmation","inputs":[]},{"type":"error","name":"AccessControlUnauthorizedAccount","inputs":[{"name":"account","type":"address","internalType":"address"},{"name":"neededRole","type":"bytes32","internalType":"bytes32"}]}],"bytecode":{"object":"0x6080604052346200003257620000153362000036565b506200002133620000b4565b506040516119e39081620001558239f35b5f80fd5b6001600160a01b03165f8181527fad3228b676f7d3cd4284a5443f17f1962b36e491b30a40b2405849e597ba5fb5602052604081205490919060ff16620000b057818052816020526040822081835260205260408220600160ff1982541617905533915f8051602062001b388339815191528180a4600190565b5090565b6001600160a01b03165f8181527fa629f6981c2f6895a67dc766e8e03ff72d04a413d0d8773a3ca56e9e474032c160205260408120549091907f68e79a7bf1e0bc45d0a330c573bc367f9cf464fd326078812f301165fbda4ef19060ff166200014f57808352826020526040832082845260205260408320600160ff198254161790555f8051602062001b38833981519152339380a4600190565b50509056fe6080604081815260049182361015610015575f80fd5b5f92833560e01c91826301ffc9a714610f785750816307e2cea514610f505781630d0ff86314610f155781630f392dd614610eda578163163d17fe14610e9f578163163e2d8014610e645781631cfb5d0f14610e29578163248a9ca314610dff57816329bd590514610d9e5781632a65306914610d635781632f2ff15d14610d3957816336568abe14610cf35781633af32abf14610cb557816345c8b1a614610c4457816351e2071214610c0957816361cdb087146108f457816374a8f1031461084b57816388a1ef69146108105781638d1fdf2f1461079c57816391d14854146107565781639b19251a14610637578163a217fddf1461061c578163a65cef32146105e1578163aac8f967146105b2578163c3f9b7341461058f578163c6788bdd14610505578163cb04072f146104b1578163cd811c5114610476578163d05166501461044b578163d0d46a0b14610361578163d547741f1461031e57508063e16c0652146102e1578063e5839836146102a4578063f18630d91461026a578063f378d7d714610230578063f6b53942146101f65763f71702d4146101b9575f80fd5b346101f257816003193601126101f257602090517fe01d357f8329e458c7fdfe360ba24fb76730ddb13bac803b5b77430b04ef59e48152f35b5080fd5b50346101f257816003193601126101f257602090517f3bf9a69a35f9ffc782e4a2c9cef08fbba4b7f2b0c8dcbc431efe25815d94aaa88152f35b50346101f257816003193601126101f257602090517fd03711a645ac13b3887baa10c28f347997e96617340d7ffae036e653d4c591858152f35b50346101f257816003193601126101f257602090517f8670ff8414a4161850e9f04e9837a3a2da1afc3ba98ba644703635d448697caa8152f35b50346101f25760203660031901126101f25760209160ff9082906001600160a01b036102ce610fe5565b1681526005855220541690519015158152f35b50346101f25760203660031901126101f25760209160ff9082906001600160a01b0361030b610fe5565b1681526003855220541690519015158152f35b9190503461035d578060031936011261035d5761035991356103546001610343610fcb565b938387528660205286200154611052565b6110ef565b5080f35b8280fd5b5050346101f25760208060031936011261035d578160c093610381610fe5565b8160a061038c61124e565b82815282878201528286820152826060820152826080820152015260018060a01b0316815260018352206103be61124e565b90549061ffff60f01b8260f01b16938482528382019060ff8460101c16151582528083019060ff8560181c161515825260608401916001600160401b039687948588831c1685528560a0608089019860ff8b60601c1615158a52019860681c1688528351998a525115159089015251151590870152511660608501525115156080840152511660a0820152f35b5050346101f25760203660031901126101f25760209160ff9082906001600160a01b036102ce610fe5565b5050346101f257816003193601126101f257602090517f579108b04395f165d03a250e48af18e7176946dedf5f2055483c95b7e1a3f7228152f35b8284346105025760803660031901126105025760606001600160401b03836104eb6104da610fe5565b6104e2610fcb565b60443591611355565b908394929451941515855260208501521690820152f35b80fd5b5050346101f25760203660031901126101f25760c09181906001600160a01b0361052d610fe5565b1681526001602052205481519161ffff60f01b8260f01b16835260ff8260101c161515602084015260ff8260181c161515908301526001600160401b0390818160201c16606084015260ff8160601c161515608084015260681c1660a0820152f35b8284346105025780600319360112610502575060ff602092541690519015158152f35b5050346101f25760203660031901126101f2576020906105d86105d3610fe5565b611281565b90519015158152f35b5050346101f257816003193601126101f257602090517fe2bbdcf7d3e3d506bdc2442c0304db6d8b4e9cb2ba04034088a6fea56320530b8152f35b5050346101f257816003193601126101f25751908152602090f35b9190503461035d576020908160031936011261075257610655610fe5565b5f8051602061198e8339815191528552848352818520338652835261067f60ff83872054166111c0565b6001600160a01b031692610694841515611162565b838552600183528185205460f01b6001600160f01b031916156106fc57508284526002825260038185209260ff19936001858254161790555283209081541690557f12c94d2725e3b811140fad6a73350adbd38646149c9a9a62ffc1018bec2ec97c8280a280f35b82608492519162461bcd60e51b8352820152602c60248201527f436f6d706c69616e636552656769737472793a20636c61696d73206d7573742060448201526b1899481cd95d08199a5c9cdd60a21b6064820152fd5b8380fd5b90503461035d578160031936011261035d578160209360ff92610777610fcb565b903582528186528282206001600160a01b039091168252855220549151911615158152f35b5050346101f25760203660031901126101f2576107b7610fe5565b6107bf610ffb565b6001600160a01b0316906107d4821515611162565b81835260056020528220805460ff191660011790557f4f2a367e694e71282f29ab5eaa04c4c0be45ac5bf2ca74fb67068b98bdc2887d8280a280f35b5050346101f257816003193601126101f257602090517f31a2ca2c2152755c56924038ccbb99cf9bd48733649fe856f91db29ce18126ae8152f35b5050346101f25760203660031901126101f257610866610fe5565b5f8051602061198e83398151915283528260205281832033845260205261089260ff83852054166111c0565b6001600160a01b0316906108a7821515611162565b81835260036020528083209060ff1991600183825416179055600260205283209081541690557f6e439c1129851c7aeb071225f567b51170a74259fb78b95132d3981f1d06a6ee8280a280f35b90503461035d5760e036600319011261035d5761090f610fe5565b9060c0366023190112610752575f8051602061198e8339815191528452602091848352838520338652835261094960ff85872054166111c0565b6001600160a01b03169261095e841515611162565b6001600160f01b0319928361097161120b565b1615610bb6576001600160401b039283610989611222565b16610b4f575b83610998611238565b16610ae4575b5084865260018152818620916109b261120b565b60f01c9280549260443591821515809303610ad85760643594851515809603610ae0576bffffffffffffffff000000006109ea611222565b841b1660a43597881515809903610adc5767ffffffffffffffff60681b610a0f611238565b60681b16926affffffffffffffffffffff60a81b161762ff00008660101b161763ff0000008860181b16171760ff60601b8860601b16171790556002815282892060ff199060018282541617905560038252838a20908154169055825196602435908116809103610ad8578752860152840152608435828116809103610ad4576060840152608083015260c435908116809103610752578160c09160a07f18d8650f29e830d194b466e0b703541fa8825d2f3979a5bed18131f732df8dc3940152a280f35b8580fd5b8980fd5b8c80fd5b8a80fd5b610aec611238565b844291161161099e57915162461bcd60e51b815291820152603060248201527f436f6d706c69616e636552656769737472793a2065787069726174696f6e206d60448201526f75737420626520696e2066757475726560801b6064820152608490fd5b610b57611222565b844291161161098f57915162461bcd60e51b815291820152602c60248201527f436f6d706c69616e636552656769737472793a206c6f636b7570206d7573742060448201526b626520696e2066757475726560a01b6064820152608490fd5b905162461bcd60e51b815291820152602960248201527f436f6d706c69616e636552656769737472793a20636f756e74727920636f6465604482015268081c995c5d5a5c995960ba1b6064820152608490fd5b5050346101f257816003193601126101f257602090517fe3b485aa0881e18a8b9fb6515965a1bd9a98a15d1dc9ed158e950f89baa26bfc8152f35b5050346101f25760203660031901126101f257610c5f610fe5565b610c67610ffb565b6001600160a01b031690610c7c821515611162565b81835260056020528220805460ff191690557ff915cd9fe234de6e8d3afe7bf2388d35b2b6d48e8c629a24602019bde79c213a8280a280f35b5050346101f25760203660031901126101f25760209160ff9082906001600160a01b03610ce0610fe5565b1681526002855220541690519015158152f35b8383346101f257806003193601126101f257610d0d610fcb565b90336001600160a01b03831603610d2a57506103599192356110ef565b5163334bd91960e11b81528390fd5b9190503461035d578060031936011261035d576103599135610d5e6001610343610fcb565b611073565b5050346101f257816003193601126101f257602090517fe371244883477b51ac7a2cca6cc9ba95dbf7f1f24a4b78b255f44c20de05640e8152f35b90503461035d57602036600319011261035d578035801515809103610752577f2d81e8279555ba510520dca1f865bdbe3c72d9ffec0b8474e3f1291f2a8fbf7492602092610dea610ffb565b60ff1981541660ff841617905551908152a180f35b90503461035d57602036600319011261035d57816020936001923581528085522001549051908152f35b5050346101f257816003193601126101f257602090517f9a27f44d2f6ff3a91f0cef92d2aeadbf280f675373204a8719f88503e98a40c88152f35b5050346101f257816003193601126101f257602090517f07988dcc8431ea2d4b3407f233f523f6b9a834a35261c06ee88327d1340575e38152f35b5050346101f257816003193601126101f257602090517fbef7adf6ebd4a32bcc2a8a423f78f8bae66d4fbccd708061af6af777917024c98152f35b5050346101f257816003193601126101f257602090517f45e4e80bab0d47df0ecc411108da6e6c22d4cdc52c6afab5bbe18619eb94c2978152f35b5050346101f257816003193601126101f257602090517f4e02dd11d88cb397adbe714f037f7663e819b2ef2f779b943c2d21eebdcb66028152f35b5050346101f257816003193601126101f257602090515f8051602061198e8339815191528152f35b84913461035d57602036600319011261035d573563ffffffff60e01b811680910361035d5760209250637965db0b60e01b8114908115610fba575b5015158152f35b6301ffc9a760e01b14905083610fb3565b602435906001600160a01b0382168203610fe157565b5f80fd5b600435906001600160a01b0382168203610fe157565b335f9081527fad3228b676f7d3cd4284a5443f17f1962b36e491b30a40b2405849e597ba5fb5602052604081205460ff16156110345750565b6044906040519063e2517d3f60e01b82523360048301526024820152fd5b805f525f60205260405f20335f5260205260ff60405f205416156110345750565b905f9180835282602052604083209160018060a01b03169182845260205260ff604084205416155f146110ea57808352826020526040832082845260205260408320600160ff198254161790557f2f8788117e7eff1d82e926ec794901d17c78024a50270940304540a733656f0d339380a4600190565b505090565b905f9180835282602052604083209160018060a01b03169182845260205260ff6040842054165f146110ea5780835282602052604083208284526020526040832060ff1981541690557ff6391f5c32d9c69d2a47ea670b442974b53935d1edc7fd64eb21e047a839171b339380a4600190565b1561116957565b60405162461bcd60e51b815260206004820152602960248201527f436f6d706c69616e636552656769737472793a2077616c6c65742063616e6e6f60448201526874206265207a65726f60b81b6064820152608490fd5b156111c757565b606460405162461bcd60e51b815260206004820152602060248201527f4f7261636c65526f6c653a2063616c6c6572206973206e6f74206f7261636c656044820152fd5b6024356001600160f01b031981168103610fe15790565b6084356001600160401b0381168103610fe15790565b60c4356001600160401b0381168103610fe15790565b6040519060c082018281106001600160401b0382111761126d57604052565b634e487b7160e01b5f52604160045260245ffd5b6001600160a01b031680156113505760a05f91808352600160205260408320906112a961124e565b91549161ffff60f01b8360f01b169081815260ff8460101c161515602082015260ff8460181c16151560408201526001600160401b03948591828660201c16606082015260ff8660601c1615156080820152019360681c1683521561134a578352600360205260ff6040842054166110ea575116801515908161133f575b5061133c57604060ff91600260205220541690565b90565b90504210155f611327565b50505090565b505f90565b9060ff600454166115a5576001600160a01b03928284168015159081908161158e575b50611561575f9483168552600560205260ff60408620541661153657806114fe575b6113a3836115d0565b156114d357611476575b7f6a03b0013265372b884812b0d3773c026802ac22c12c90268815d185b1917b18810361141357506113de91611727565b8061140d57505b6001917f8670ff8414a4161850e9f04e9837a3a2da1afc3ba98ba644703635d448697caa9190565b90918290565b7f4a7e0eba24b6b787bf68192ab18d9a325f89c2324c942864c501565bb41a0ba00361144d5761144291611867565b8061140d57506113e5565b505080917fe3b485aa0881e18a8b9fb6515965a1bd9a98a15d1dc9ed158e950f89baa26bfc9190565b61147f836116a5565b6001600160401b03811680151590816114c9575b5061149e57506113ad565b9392505050917f07988dcc8431ea2d4b3407f233f523f6b9a834a35261c06ee88327d1340575e39190565b905042105f611493565b5050505080917fd03711a645ac13b3887baa10c28f347997e96617340d7ffae036e653d4c591859190565b611507846115d0565b61139a575050505080917fd03711a645ac13b3887baa10c28f347997e96617340d7ffae036e653d4c591859190565b5050505080917f31a2ca2c2152755c56924038ccbb99cf9bd48733649fe856f91db29ce18126ae9190565b50505050505f907f31a2ca2c2152755c56924038ccbb99cf9bd48733649fe856f91db29ce18126ae905f90565b90505f52600560205260ff60405f2054165f611378565b5050505f907fe371244883477b51ac7a2cca6cc9ba95dbf7f1f24a4b78b255f44c20de05640e905f90565b6001600160a01b03168015611350575f90815260206005815260ff90816040842054166110ea5760038152816040842054166110ea576002815281604084205416156110ea57600181526040832060a09261162961124e565b9154809161ffff60f01b8260f01b1694858552818360101c16151581860152818360181c16151560408601526001600160401b039384911c1660608501528160601c161515608084015260681c169283910152156116a1578015159081611696575b5061133c5750600190565b90504210155f61168b565b5090565b6001600160a01b03165f9081526001602052604090206116c361124e565b90549061ffff60f01b8260f01b16815260ff8260101c161515602082015260ff8260181c161515604082015260a06001600160401b03808460201c169384606085015260ff8160601c161515608085015260681c1691015242811161133c57505f90565b9060018060a01b038091165f526020916001835260405f209061174861124e565b915461ffff60f01b93848260f01b16845260ff93848360101c16151587820152848360181c1615908115604082015260a06001600160401b03858180978c1c166060850152888160601c161515608085015260681c1691015261183d5760a0921693845f526001865260405f20936117be61124e565b9454918260f01b168552808260101c161515878601528282828160181c161598891560408901521c1660608601528160601c161515608085015260681c1691015215159081611835575b50611811575f90565b7f579108b04395f165d03a250e48af18e7176946dedf5f2055483c95b7e1a3f72290565b90505f611808565b5050505050507fbef7adf6ebd4a32bcc2a8a423f78f8bae66d4fbccd708061af6af777917024c990565b60018060a01b038092165f526020906001825260405f209061188761124e565b91549060a061ffff60f01b92838160f01b1685528585019660ff93848360101c1615158952848360181c16151560408801526001600160401b03838180958b1c1660608a0152868160601c16151560808a015260681c16848801521695865f526001815260405f2093826118f961124e565b95548093888260f01b168852838260101c16151581890152838260181c16151560408901521c1660608601528160601c161515608085015260681c1691015261555360f01b91511614918215611982575b5061195457505f90565b61195e575f611350565b7fe01d357f8329e458c7fdfe360ba24fb76730ddb13bac803b5b77430b04ef59e490565b51151591505f61194a56fe68e79a7bf1e0bc45d0a330c573bc367f9cf464fd326078812f301165fbda4ef1a26469706673582212201f2e1f55c0da55ef82390f85d9298d44c66f122ba15e0c75fa6daf7da4af830364736f6c634300081400332f8788117e7eff1d82e926ec794901d17c78024a50270940304540a733656f0d","linkReferences":{}},"methodIdentifiers":{"DEFAULT_ADMIN_ROLE()":"a217fddf","ERR_CLAIMS_EXPIRED()":"f6b53942","ERR_COMPLIANCE_PAUSED()":"2a653069","ERR_DESTINATION_NOT_ACCREDITED_REG_D()":"163d17fe","ERR_FROZEN()":"88a1ef69","ERR_INTERNAL_POLICY()":"a65cef32","ERR_LOCKUP_ACTIVE()":"163e2d80","ERR_NOT_WHITELISTED()":"f378d7d7","ERR_OK()":"f18630d9","ERR_PARTITION_CROSS_NOT_ALLOWED()":"0f392dd6","ERR_PAUSED()":"0d0ff863","ERR_REG_S_US_PERSON_RESTRICTED()":"f71702d4","ERR_REVOKED()":"1cfb5d0f","ERR_SOURCE_NOT_ACCREDITED_REG_D()":"cd811c51","ERR_UNKNOWN_PARTITION()":"51e20712","ORACLE_ROLE()":"07e2cea5","claims(address)":"c6788bdd","freeze(address)":"8d1fdf2f","frozen(address)":"d0516650","getClaims(address)":"d0d46a0b","getRoleAdmin(bytes32)":"248a9ca3","globalCompliancePaused()":"c3f9b734","grantRole(bytes32,address)":"2f2ff15d","hasRole(bytes32,address)":"91d14854","isFrozen(address)":"e5839836","isRevoked(address)":"e16c0652","isTransferAllowed(address,address,bytes32,uint256)":"cb04072f","isWalletWhitelisted(address)":"aac8f967","isWhitelisted(address)":"3af32abf","renounceRole(bytes32,address)":"36568abe","revoke(address)":"74a8f103","revokeRole(bytes32,address)":"d547741f","setClaims(address,(bytes2,bool,bool,uint64,bool,uint64))":"61cdb087","setGlobalCompliancePaused(bool)":"29bd5905","supportsInterface(bytes4)":"01ffc9a7","unfreeze(address)":"45c8b1a6","whitelist(address)":"9b19251a"},"id":24}