{"abi":[{"type":"constructor","inputs":[{"name":"_implementation","type":"address","internalType":"contract SecurityToken"}],"stateMutability":"nonpayable"},{"type":"function","name":"deployToken","inputs":[{"name":"name","type":"string","internalType":"string"},{"name":"symbol","type":"string","internalType":"string"},{"name":"owner","type":"address","internalType":"address"},{"name":"controller","type":"address","internalType":"address"},{"name":"registry","type":"address","internalType":"address"}],"outputs":[{"name":"token","type":"address","internalType":"contract SecurityToken"}],"stateMutability":"nonpayable"},{"type":"function","name":"deployedTokens","inputs":[{"name":"","type":"uint256","internalType":"uint256"}],"outputs":[{"name":"","type":"address","internalType":"contract SecurityToken"}],"stateMutability":"view"},{"type":"function","name":"getAllTokens","inputs":[],"outputs":[{"name":"","type":"address[]","internalType":"contract SecurityToken[]"}],"stateMutability":"view"},{"type":"function","name":"getDeploymentCount","inputs":[],"outputs":[{"name":"","type":"uint256","internalType":"uint256"}],"stateMutability":"view"},{"type":"function","name":"getImplementation","inputs":[],"outputs":[{"name":"","type":"address","internalType":"address"}],"stateMutability":"view"},{"type":"function","name":"getTokenByIndex","inputs":[{"name":"index","type":"uint256","internalType":"uint256"}],"outputs":[{"name":"token","type":"address","internalType":"contract SecurityToken"},{"name":"info","type":"tuple","internalType":"struct SecurityTokenFactory.TokenInfo","components":[{"name":"name","type":"string","internalType":"string"},{"name":"symbol","type":"string","internalType":"string"},{"name":"owner","type":"address","internalType":"address"},{"name":"controller","type":"address","internalType":"address"},{"name":"registry","type":"address","internalType":"address"},{"name":"deploymentTime","type":"uint256","internalType":"uint256"}]}],"stateMutability":"view"},{"type":"function","name":"implementation","inputs":[],"outputs":[{"name":"","type":"address","internalType":"contract SecurityToken"}],"stateMutability":"view"},{"type":"function","name":"isDeployedToken","inputs":[{"name":"token","type":"address","internalType":"address"}],"outputs":[{"name":"","type":"bool","internalType":"bool"}],"stateMutability":"view"},{"type":"function","name":"owner","inputs":[],"outputs":[{"name":"","type":"address","internalType":"address"}],"stateMutability":"view"},{"type":"function","name":"renounceOwnership","inputs":[],"outputs":[],"stateMutability":"nonpayable"},{"type":"function","name":"tokenInfo","inputs":[{"name":"","type":"address","internalType":"address"}],"outputs":[{"name":"name","type":"string","internalType":"string"},{"name":"symbol","type":"string","internalType":"string"},{"name":"owner","type":"address","internalType":"address"},{"name":"controller","type":"address","internalType":"address"},{"name":"registry","type":"address","internalType":"address"},{"name":"deploymentTime","type":"uint256","internalType":"uint256"}],"stateMutability":"view"},{"type":"function","name":"transferOwnership","inputs":[{"name":"newOwner","type":"address","internalType":"address"}],"outputs":[],"stateMutability":"nonpayable"},{"type":"event","name":"OwnershipTransferred","inputs":[{"name":"previousOwner","type":"address","indexed":true,"internalType":"address"},{"name":"newOwner","type":"address","indexed":true,"internalType":"address"}],"anonymous":false},{"type":"event","name":"TokenDeployed","inputs":[{"name":"token","type":"address","indexed":true,"internalType":"address"},{"name":"name","type":"string","indexed":false,"internalType":"string"},{"name":"symbol","type":"string","indexed":false,"internalType":"string"},{"name":"owner","type":"address","indexed":true,"internalType":"address"},{"name":"controller","type":"address","indexed":true,"internalType":"address"},{"name":"registry","type":"address","indexed":false,"internalType":"address"}],"anonymous":false},{"type":"error","name":"FailedDeployment","inputs":[]},{"type":"error","name":"InsufficientBalance","inputs":[{"name":"balance","type":"uint256","internalType":"uint256"},{"name":"needed","type":"uint256","internalType":"uint256"}]},{"type":"error","name":"OwnableInvalidOwner","inputs":[{"name":"owner","type":"address","internalType":"address"}]},{"type":"error","name":"OwnableUnauthorizedAccount","inputs":[{"name":"account","type":"address","internalType":"address"}]}],"bytecode":{"object":"0x60a03461012357601f61106a38819003918201601f19168301916001600160401b038311848410176101275780849260209460405283398101031261012357516001600160a01b0380821680830361012357331561010b575f543360018060a01b03198216175f55604051923391167f8be0079c531659141344cd1fd0a4f28419497f9722a3daafe3b4186f6b6457e05f80a3156100ba5750608052604051610f2e908161013c823960805181818161024b015261064b0152f35b62461bcd60e51b815260206004820152602660248201527f466163746f72793a20696d706c656d656e746174696f6e2063616e6e6f74206260448201526565207a65726f60d01b6064820152608490fd5b604051631e4fbdf760e01b81525f6004820152602490fd5b5f80fd5b634e487b7160e01b5f52604160045260245ffdfe60806040526004361015610011575f80fd5b5f803560e01c806307d554ef146105705780632a5c792a146104b25780634c1c7ddf146104735780635c60da1b14610235578063644b7a43146102fa578063715018a6146102a15780638da5cb5b1461027a578063aaf10f4214610235578063b3eedf1214610217578063ec81aadb146101d3578063f2fde38b146101465763f5dab7111461009e575f80fd5b346101435760203660031901126101435761011c906001600160a01b0390604090826100c8610d57565b168152600260205220906100db82610e2c565b916100e860018201610e2c565b90826002820154169261012a600582600385015416926004850154169301549360405197889760c0895260c0890190610d6d565b908782036020890152610d6d565b9360408601526060850152608084015260a08301520390f35b80fd5b503461014357602036600319011261014357610160610d57565b610168610ecd565b6001600160a01b039081169081156101ba575f54826bffffffffffffffffffffffff60a01b8216175f55167f8be0079c531659141344cd1fd0a4f28419497f9722a3daafe3b4186f6b6457e05f80a380f35b604051631e4fbdf760e01b815260048101849052602490fd5b503461014357602036600319011261014357600435906001548210156101435760206101fe83610dab565b905460405160039290921b1c6001600160a01b03168152f35b50346101435780600319360112610143576020600154604051908152f35b50346101435780600319360112610143576040517f00000000000000000000000000000000000000000000000000000000000000006001600160a01b03168152602090f35b5034610143578060031936011261014357546040516001600160a01b039091168152602090f35b50346101435780600319360112610143576102ba610ecd565b5f80546001600160a01b0319811682556001600160a01b03167f8be0079c531659141344cd1fd0a4f28419497f9722a3daafe3b4186f6b6457e08280a380f35b50346101435760209081600319360112610143576004358160a060405161032081610cab565b60608152606086820152826040820152826060820152826080820152015260015481101561042e57610353604091610dab565b919060018060a01b03928391549060031b1c16928381526002855220906040519061037d82610cab565b61038683610e2c565b825261039460018401610e2c565b92858301938452818060028301541694604085019586528161040e8160038601541692606088019384526103fb6005846004890154169760808b0198895201549860a08101998a52604080519d8e9d8e528d01525160c060408d01526101008c0190610d6d565b90518a8203603f190160608c0152610d6d565b9651166080880152511660a0860152511660c08401525160e08301520390f35b60405162461bcd60e51b815260048101849052601c60248201527f466163746f72793a20696e646578206f7574206f6620626f756e6473000000006044820152606490fd5b5034610143576020366003190112610143576020906005906040906001600160a01b0361049e610d57565b168152600284522001541515604051908152f35b50346101435780600319360112610143576040518091600190815493848452602080940180958484527fb10e2d527612073b26eecdfd717e6a320cf44b4afac2b0732d9fcbe2b7fa0cf690845b8181106105545750505081610515910382610cdb565b6040519380850191818652518092526040850195925b8281106105385785870386f35b83516001600160a01b031687529581019592810192840161052b565b82546001600160a01b03168452928701929186019186016104ff565b5034610143576003199060a0368301126101435760043567ffffffffffffffff8111610ca3576105a4903690600401610cfd565b9160243567ffffffffffffffff8111610c9f576105c5903690600401610cfd565b604480359290916001600160a01b0384168403610ca7576064948535926001600160a01b0384168403610ca357608435946001600160a01b0386168603610c9f5761060e610ecd565b885115610c5c57835115610c19576001600160a01b03871615610bd6576001600160a01b03851615610b88576001600160a01b03861615610b45577f0000000000000000000000000000000000000000000000000000000000000000608881901c62ffffff16763d602d80600a3d3981f3363d3d373d3d3d363d7300000017845260781b6effffffffffffffffffffffffffffff19166e5af43d82803e903d91602b57fd5bf3176020526001600160a01b036037600985f016978815610b3357883b15610b2f578984926107029261071260405196879586956306d876b560e51b875260a0600488015260a4870190610d6d565b9085820301602486015289610d6d565b6001600160a01b038c8116938501939093528983169184019190915290891660848301520381838b5af18015610b2457610af8575b5060405161075481610cab565b87815260208082018490526001600160a01b03878116604080850191909152868216606085015290871660808401524260a084015288845260029091528220815180519192919067ffffffffffffffff8211610a295781906107b68554610df4565b601f8111610aab575b50602090601f8311600114610a48578692610a3d575b50508160011b915f199060031b1c19161782555b602081015180519067ffffffffffffffff8211610a295761080d6001850154610df4565b601f81116109e5575b50602090601f83116001146109775791806005949260a094889261096c575b50508160011b915f199060031b1c19161760018501555b60028401600180841b03604083015116906bffffffffffffffffffffffff841b918282541617905560038501600180851b03606084015116828254161790556004850190600180851b036080840151169082541617905501519101556001549068010000000000000000821015610958575060209686936109357f6af377b6387c3c1b4203c6e3ddc2d107fd8d301ca3859492845dc4b13135b464946108fb8560016109289701600155610dab565b81549060031b9089821b9160018060a01b03901b1916179055604051948594606086526060860190610d6d565b908482038c860152610d6d565b6001600160a01b03968716604084015290861696909516940390a4604051908152f35b634e487b7160e01b81526041600452602490fd5b015190505f80610835565b600185018652602086209190601f198416875b8181106109cd575092600192859260a09660059896106109b5575b505050811b01600185015561084c565b01515f1960f88460031b161c191690555f80806109a5565b9293602060018192878601518155019501930161098a565b60018501865260208620601f840160051c810160208510610a22575b601f830160051c82018110610a17575050610816565b878155600101610a01565b5080610a01565b634e487b7160e01b85526041600452602485fd5b015190505f806107d5565b858752602087209250601f198416875b818110610a935750908460019594939210610a7b575b505050811b0182556107e9565b01515f1960f88460031b161c191690555f8080610a6e565b92936020600181928786015181550195019301610a58565b90915084865260208620601f840160051c810160208510610af1575b90849392915b601f830160051c82018110610ae35750506107bf565b888155859450600101610acd565b5080610ac7565b67ffffffffffffffff8111610b10576040525f610747565b634e487b7160e01b82526041600452602482fd5b6040513d84823e3d90fd5b8380fd5b60405163b06ebf3d60e01b8152600490fd5b87907f466163746f72793a2072656769737472792063616e6e6f74206265207a65726f6040519162461bcd60e51b83526020600484015260206024840152820152fd5b60849061726f60f01b897f466163746f72793a20636f6e74726f6c6c65722063616e6e6f74206265207a656040519362461bcd60e51b85526020600486015260226024860152840152820152fd5b87907f466163746f72793a206f776e65722063616e6e6f74206265207a65726f0000006040519162461bcd60e51b835260206004840152601d6024840152820152fd5b87907f466163746f72793a2073796d626f6c2063616e6e6f7420626520656d707479006040519162461bcd60e51b835260206004840152601f6024840152820152fd5b87907f466163746f72793a206e616d652063616e6e6f7420626520656d7074790000006040519162461bcd60e51b835260206004840152601d6024840152820152fd5b8280fd5b5080fd5b8480fd5b60c0810190811067ffffffffffffffff821117610cc757604052565b634e487b7160e01b5f52604160045260245ffd5b90601f8019910116810190811067ffffffffffffffff821117610cc757604052565b81601f82011215610d535780359067ffffffffffffffff8211610cc75760405192610d32601f8401601f191660200185610cdb565b82845260208383010111610d5357815f926020809301838601378301015290565b5f80fd5b600435906001600160a01b0382168203610d5357565b91908251928382525f5b848110610d97575050825f602080949584010152601f8019910116010190565b602081830181015184830182015201610d77565b600154811015610de05760015f527fb10e2d527612073b26eecdfd717e6a320cf44b4afac2b0732d9fcbe2b7fa0cf601905f90565b634e487b7160e01b5f52603260045260245ffd5b90600182811c92168015610e22575b6020831014610e0e57565b634e487b7160e01b5f52602260045260245ffd5b91607f1691610e03565b9060405191825f825492610e3f84610df4565b9081845260019485811690815f14610eaa5750600114610e6a575b5050610e6892500383610cdb565b565b909391505f52602090815f20935f915b818310610e92575050610e6893508201015f80610e5a565b85548884018501529485019487945091830191610e7a565b915050610e6894506020925060ff191682840152151560051b8201015f80610e5a565b5f546001600160a01b03163303610ee057565b60405163118cdaa760e01b8152336004820152602490fdfea2646970667358221220761773a326eeb9e08cfa8cb775afaf2bc22819bc1e2dc2b454c62e92af7c0eaa64736f6c63430008140033","linkReferences":{}},"methodIdentifiers":{"deployToken(string,string,address,address,address)":"07d554ef","deployedTokens(uint256)":"ec81aadb","getAllTokens()":"2a5c792a","getDeploymentCount()":"b3eedf12","getImplementation()":"aaf10f42","getTokenByIndex(uint256)":"644b7a43","implementation()":"5c60da1b","isDeployedToken(address)":"4c1c7ddf","owner()":"8da5cb5b","renounceOwnership()":"715018a6","tokenInfo(address)":"f5dab711","transferOwnership(address)":"f2fde38b"},"id":34}