{"abi":[{"type":"constructor","inputs":[{"name":"_usdc","type":"address","internalType":"address"},{"name":"_securityToken","type":"address","internalType":"address"},{"name":"_activePartition","type":"bytes32","internalType":"bytes32"}],"stateMutability":"nonpayable"},{"type":"function","name":"activePartition","inputs":[],"outputs":[{"name":"","type":"bytes32","internalType":"bytes32"}],"stateMutability":"view"},{"type":"function","name":"currentCycleFunded","inputs":[],"outputs":[{"name":"","type":"uint256","internalType":"uint256"}],"stateMutability":"view"},{"type":"function","name":"currentDistributionMode","inputs":[],"outputs":[{"name":"","type":"uint8","internalType":"uint8"}],"stateMutability":"view"},{"type":"function","name":"distribute","inputs":[{"name":"snapshotId","type":"uint256","internalType":"uint256"}],"outputs":[],"stateMutability":"nonpayable"},{"type":"function","name":"distributeBatch","inputs":[{"name":"snapshotId","type":"uint256","internalType":"uint256"},{"name":"recipients","type":"address[]","internalType":"address[]"},{"name":"amounts","type":"uint256[]","internalType":"uint256[]"}],"outputs":[],"stateMutability":"nonpayable"},{"type":"function","name":"distributionMode","inputs":[],"outputs":[{"name":"","type":"uint8","internalType":"uint8"}],"stateMutability":"view"},{"type":"function","name":"emergencyWithdraw","inputs":[],"outputs":[],"stateMutability":"nonpayable"},{"type":"function","name":"fund","inputs":[{"name":"amount","type":"uint256","internalType":"uint256"}],"outputs":[],"stateMutability":"nonpayable"},{"type":"function","name":"fundedAmount","inputs":[],"outputs":[{"name":"","type":"uint256","internalType":"uint256"}],"stateMutability":"view"},{"type":"function","name":"lastDistributedSnapshotId","inputs":[],"outputs":[{"name":"","type":"uint256","internalType":"uint256"}],"stateMutability":"view"},{"type":"function","name":"nextSnapshotId","inputs":[],"outputs":[{"name":"","type":"uint256","internalType":"uint256"}],"stateMutability":"view"},{"type":"function","name":"owner","inputs":[],"outputs":[{"name":"","type":"address","internalType":"address"}],"stateMutability":"view"},{"type":"function","name":"pause","inputs":[],"outputs":[],"stateMutability":"nonpayable"},{"type":"function","name":"paused","inputs":[],"outputs":[{"name":"","type":"bool","internalType":"bool"}],"stateMutability":"view"},{"type":"function","name":"renounceOwnership","inputs":[],"outputs":[],"stateMutability":"nonpayable"},{"type":"function","name":"requiredAmount","inputs":[{"name":"snapshotId","type":"uint256","internalType":"uint256"}],"outputs":[{"name":"","type":"uint256","internalType":"uint256"}],"stateMutability":"view"},{"type":"function","name":"rescueERC20","inputs":[{"name":"token","type":"address","internalType":"address"},{"name":"to","type":"address","internalType":"address"},{"name":"amount","type":"uint256","internalType":"uint256"}],"outputs":[],"stateMutability":"nonpayable"},{"type":"function","name":"rescueERC721","inputs":[{"name":"token","type":"address","internalType":"address"},{"name":"to","type":"address","internalType":"address"},{"name":"tokenId","type":"uint256","internalType":"uint256"}],"outputs":[],"stateMutability":"nonpayable"},{"type":"function","name":"securityToken","inputs":[],"outputs":[{"name":"","type":"address","internalType":"address"}],"stateMutability":"view"},{"type":"function","name":"setMode","inputs":[{"name":"mode","type":"uint8","internalType":"uint8"}],"outputs":[],"stateMutability":"nonpayable"},{"type":"function","name":"setSnapshotHash","inputs":[{"name":"snapshotId","type":"uint256","internalType":"uint256"},{"name":"capTableHash","type":"bytes32","internalType":"bytes32"}],"outputs":[],"stateMutability":"nonpayable"},{"type":"function","name":"snapshot","inputs":[],"outputs":[{"name":"snapshotId","type":"uint256","internalType":"uint256"}],"stateMutability":"nonpayable"},{"type":"function","name":"snapshotBalances","inputs":[{"name":"","type":"uint256","internalType":"uint256"},{"name":"","type":"address","internalType":"address"}],"outputs":[{"name":"","type":"uint256","internalType":"uint256"}],"stateMutability":"view"},{"type":"function","name":"snapshotDistributed","inputs":[{"name":"","type":"uint256","internalType":"uint256"}],"outputs":[{"name":"","type":"bool","internalType":"bool"}],"stateMutability":"view"},{"type":"function","name":"snapshotHashes","inputs":[{"name":"","type":"uint256","internalType":"uint256"}],"outputs":[{"name":"","type":"bytes32","internalType":"bytes32"}],"stateMutability":"view"},{"type":"function","name":"snapshots","inputs":[{"name":"","type":"uint256","internalType":"uint256"}],"outputs":[{"name":"totalSupply","type":"uint256","internalType":"uint256"},{"name":"blockNumber","type":"uint64","internalType":"uint64"},{"name":"timestamp","type":"uint64","internalType":"uint64"}],"stateMutability":"view"},{"type":"function","name":"totalResidual","inputs":[],"outputs":[{"name":"","type":"uint256","internalType":"uint256"}],"stateMutability":"view"},{"type":"function","name":"transferOwnership","inputs":[{"name":"newOwner","type":"address","internalType":"address"}],"outputs":[],"stateMutability":"nonpayable"},{"type":"function","name":"unpause","inputs":[],"outputs":[],"stateMutability":"nonpayable"},{"type":"function","name":"usdc","inputs":[],"outputs":[{"name":"","type":"address","internalType":"contract IERC20"}],"stateMutability":"view"},{"type":"function","name":"withdrawResidual","inputs":[{"name":"amount","type":"uint256","internalType":"uint256"}],"outputs":[],"stateMutability":"nonpayable"},{"type":"event","name":"BatchDistributed","inputs":[{"name":"snapshotId","type":"uint256","indexed":true,"internalType":"uint256"},{"name":"totalPaid","type":"uint256","indexed":false,"internalType":"uint256"},{"name":"residual","type":"uint256","indexed":false,"internalType":"uint256"},{"name":"recipientCount","type":"uint256","indexed":false,"internalType":"uint256"}],"anonymous":false},{"type":"event","name":"Distributed","inputs":[{"name":"snapshotId","type":"uint256","indexed":true,"internalType":"uint256"},{"name":"totalPaid","type":"uint256","indexed":false,"internalType":"uint256"},{"name":"residual","type":"uint256","indexed":false,"internalType":"uint256"}],"anonymous":false},{"type":"event","name":"Funded","inputs":[{"name":"amount","type":"uint256","indexed":false,"internalType":"uint256"},{"name":"totalFunded","type":"uint256","indexed":false,"internalType":"uint256"}],"anonymous":false},{"type":"event","name":"ModeSet","inputs":[{"name":"mode","type":"uint8","indexed":false,"internalType":"uint8"}],"anonymous":false},{"type":"event","name":"OwnershipTransferred","inputs":[{"name":"previousOwner","type":"address","indexed":true,"internalType":"address"},{"name":"newOwner","type":"address","indexed":true,"internalType":"address"}],"anonymous":false},{"type":"event","name":"Paused","inputs":[{"name":"account","type":"address","indexed":false,"internalType":"address"}],"anonymous":false},{"type":"event","name":"PayoutSent","inputs":[{"name":"snapshotId","type":"uint256","indexed":true,"internalType":"uint256"},{"name":"recipient","type":"address","indexed":true,"internalType":"address"},{"name":"amount","type":"uint256","indexed":false,"internalType":"uint256"}],"anonymous":false},{"type":"event","name":"ResidualRecorded","inputs":[{"name":"residual","type":"uint256","indexed":false,"internalType":"uint256"}],"anonymous":false},{"type":"event","name":"SnapshotHashSet","inputs":[{"name":"snapshotId","type":"uint256","indexed":true,"internalType":"uint256"},{"name":"capTableHash","type":"bytes32","indexed":false,"internalType":"bytes32"}],"anonymous":false},{"type":"event","name":"SnapshotTaken","inputs":[{"name":"snapshotId","type":"uint256","indexed":true,"internalType":"uint256"},{"name":"totalSupply","type":"uint256","indexed":false,"internalType":"uint256"},{"name":"blockNumber","type":"uint256","indexed":false,"internalType":"uint256"}],"anonymous":false},{"type":"event","name":"Underfunded","inputs":[{"name":"required","type":"uint256","indexed":false,"internalType":"uint256"},{"name":"funded","type":"uint256","indexed":false,"internalType":"uint256"}],"anonymous":false},{"type":"event","name":"Unpaused","inputs":[{"name":"account","type":"address","indexed":false,"internalType":"address"}],"anonymous":false},{"type":"error","name":"EnforcedPause","inputs":[]},{"type":"error","name":"ExpectedPause","inputs":[]},{"type":"error","name":"OwnableInvalidOwner","inputs":[{"name":"owner","type":"address","internalType":"address"}]},{"type":"error","name":"OwnableUnauthorizedAccount","inputs":[{"name":"account","type":"address","internalType":"address"}]},{"type":"error","name":"ReentrancyGuardReentrantCall","inputs":[]},{"type":"error","name":"SafeERC20FailedOperation","inputs":[{"name":"token","type":"address","internalType":"address"}]},{"type":"error","name":"SnapshotAlreadyDistributed","inputs":[{"name":"snapshotId","type":"uint256","internalType":"uint256"}]}],"bytecode":{"object":"0x60e0346200021657601f620018a538819003918201601f191683019291906001600160401b038411838510176200021a578160609284926040968752833981010312620002165762000051816200022e565b908262000061602083016200022e565b910151913315620001ff575f8054336001600160a01b03198216811783558651936001600160a01b039384939192918416907f8be0079c531659141344cd1fd0a4f28419497f9722a3daafe3b4186f6b6457e09080a36001805516918215620001bd575082161562000179578215620001415760805260a05260c05260ff1960045416600455516116619081620002448239608051818181610268015281816103950152818161049201528181610607015281816109d801526111b6015260a0518181816109810152610ad7015260c051818181610aa901526112ef0152f35b835162461bcd60e51b815260206004820152601160248201527024b73b30b634b2103830b93a34ba34b7b760791b6044820152606490fd5b835162461bcd60e51b815260206004820152601e60248201527f496e76616c696420736563757269747920746f6b656e206164647265737300006044820152606490fd5b62461bcd60e51b815260206004820152601460248201527f496e76616c6964205553444320616464726573730000000000000000000000006044820152606490fd5b8351631e4fbdf760e01b81525f6004820152602490fd5b5f80fd5b634e487b7160e01b5f52604160045260245ffd5b51906001600160a01b0382168203620002165756fe608060408181526004361015610013575f80fd5b5f91823560e01c90816280a831146112d857508063040e7bff14610a515780630a6cb8b7146112ba5780631702f3bc1461128d57806321175b4a1461120357806327161429146111e55780633e413bee146111a25780633f4ba83a1461113857806354de7b29146111115780635c975abb146110ee57806369802138146110a95780636a328dee14610fa8578063715018a614610f4e578281637df325e114610e96575080637e57e39914610e6e578063820a5f50146103f75780638456cb5914610e145780638da5cb5b14610ded57806391c05b0b14610bf65780639711715a14610a72578063ab11c1b514610a51578063b2118a8d146109b0578063b84dfbd21461096d578063b9b344ec14610518578063ca1d209d14610415578063cfa83b43146103f7578063d08a8c3b14610345578063d6565a2d146102fc578063db2e21bc14610229578063ed2655cf1461020b5763f2fde38b14610175575f80fd5b34610207576020366003190112610207576001600160a01b036004358181169290839003610203576101a5611378565b82156101ec57505f54826bffffffffffffffffffffffff60a01b8216175f55167f8be0079c531659141344cd1fd0a4f28419497f9722a3daafe3b4186f6b6457e05f80a380f35b51631e4fbdf760e01b815260048101849052602490fd5b5f80fd5b5080fd5b50346102075781600319360112610207576020906008549051908152f35b5034610207578160031936011261020757610242611378565b61024a611417565b80516370a0823160e01b81523060048201526001600160a01b0391907f0000000000000000000000000000000000000000000000000000000000000000906020816024818786165afa9283156102f3575084926102c0575b50816102ac578380f35b6102b9928454169061158e565b5f80808380f35b9091506020813d82116102eb575b816102db602093836113f5565b810103126102035751905f6102a2565b3d91506102ce565b513d86823e3d90fd5b5034610207576020366003190112610207578060609260043581526005602052209060018254920154815192835267ffffffffffffffff908181166020850152821c1690820152f35b50346102075760203660031901126102075760043590610363611378565b61036b611417565b600954908183116103bc575090610385816103b9936114e6565b60095582546001600160a01b03167f000000000000000000000000000000000000000000000000000000000000000061158e565b80f35b5162461bcd60e51b8152602060048201526015602482015274125b9cdd59999a58da595b9d081c995cda591d585b605a1b6044820152606490fd5b50346102075781600319360112610207576020906003549051908152f35b503461020757602036600319011261020757600435610432611417565b80156104d45781516323b872dd60e01b6020820152336024820152306044820152606480820183905281527fa1dd612b9278fe0bb5d89ed1f642dc3678d0e558630c5a4a8df212ba2197cdb49291906104b6906104906084826113f5565b7f0000000000000000000000000000000000000000000000000000000000000000611481565b6104c281600354611474565b8060035582519182526020820152a180f35b815162461bcd60e51b815260206004820152601760248201527f416d6f756e74206d75737420626520706f7369746976650000000000000000006044820152606490fd5b50346102075760603660031901126102075767ffffffffffffffff906024358281116109695761054c903690600401611347565b91909260443581811161096557610567903690600401611347565b9091610571611378565b6105796114f3565b610581611417565b8185036109285760fa85116108f25784156108c0576004358752600560205283872084516105d39286906105b4836113c5565b600184549485855201548181166020850152821c169101521515611435565b600435865260076020528286205415610883576004358652600a60205260ff838720541661086b57939085946003549287927f0000000000000000000000000000000000000000000000000000000000000000915b8785106106e0575b50505050508361063f916114e6565b806106a3575b6004358552600a602052818520600160ff19825416179055600435600b5584600355815193845260208401528201527f5217fd35953304bd5d532a156cfb6929811cf9c93c680f472c4f69f8c0bf6962606060043592a26001805580f35b6106af81600954611474565b6009557fd712a78b2f9284b797100eec2ebcdeef2243a6a6309c729eb45481e9767377c660208351838152a1610645565b909192939761070a60018060a01b036107026106fd8c8c87611516565b61153a565b16151561154e565b610715898685611516565b3515610836578561073161072a8b8887611516565b3583611474565b116107d7576107736107ce9161076161074e6106fd8d8d88611516565b6107598d8a89611516565b35908861158e565b61076c8b8887611516565b3590611474565b986107826106fd828b86611516565b61078d828887611516565b8951903581526001600160a01b0390911690600435907fac496bf04b429bf7a6bb179271f3194066e9462a4f0d8afac065edd1f2be36b890602090a36113a3565b93929190610628565b97505050505060ff60045416156107f2575f80808080610630565b815162461bcd60e51b815260206004820152601c60248201527f494e53554646494349454e545f46554e44535f46554c4c5f4d4f4445000000006044820152606490fd5b865162461bcd60e51b815260206004820152600e60248201526d125b9d985b1a5908185b5bdd5b9d60921b6044820152606490fd5b60248351637add949f60e11b81526004356004820152fd5b825162461bcd60e51b815260206004820152601660248201527510d85c081d18589b19481a185cda081b9bdd081cd95d60521b6044820152606490fd5b835162461bcd60e51b815260206004820152600b60248201526a08adae0e8f240c4c2e8c6d60ab1b6044820152606490fd5b835162461bcd60e51b815260206004820152600f60248201526e426174636820746f6f206c6172676560881b6044820152606490fd5b835162461bcd60e51b8152602060048201526016602482015275082e4e4c2f2e640d8cadccee8d040dad2e6dac2e8c6d60531b6044820152606490fd5b8580fd5b8380fd5b5034610207578160031936011261020757517f00000000000000000000000000000000000000000000000000000000000000006001600160a01b03168152602090f35b509034610a4e576109c036611312565b91936109ca611378565b6001600160a01b03948516907f000000000000000000000000000000000000000000000000000000000000000086168214610a165750610a116103b994958316151561154e565b61158e565b5162461bcd60e51b815260206004820152601260248201527143616e6e6f7420726573637565205553444360701b6044820152606490fd5b80fd5b503461020757816003193601126102075760209060ff600454169051908152f35b5034610207578160031936011261020757610a8b611417565b60085490610a98826113a3565b6008558051632899cd3760e21b81527f0000000000000000000000000000000000000000000000000000000000000000600482015260209384826024817f00000000000000000000000000000000000000000000000000000000000000006001600160a01b03165afa908115610beb57849181859291610bb6575b7f7be9d0a76c3aa32b2063c1e71a2737740371887411d23841efd15985cce48f5393945067ffffffffffffffff90888243169260018651610b53816113c5565b868152878482019587875260058284019686421688528d8352522090518155019251166fffffffffffffffff000000000000000083549251871b16916fffffffffffffffffffffffffffffffff191617179055825191825287820152a251908152f35b925050508482813d8311610be4575b610bcf81836113f5565b81010312610203579051839182918491610b13565b503d610bc5565b8351903d90823e3d90fd5b509034610a4e57602091826003193601126102075760043590610c17611378565b610c1f6114f3565b610c27611417565b81835260058452610c688184208251610c3f816113c5565b836001835493848452015467ffffffffffffffff908181168a850152821c169101521515611435565b818352600a845260ff8184205416610dd657610c83826115e0565b93600354908582109586610d63575b85967fc5d35a65af09b3042394b742529d10f7fbf9a37294d6b13e4d63d06f9909a15b959650600160ff60045416149081610d5b575b5015610d4a5750610cd982806114e6565b905b81610d0e575b858752600a8152838720600160ff1982541617905585600b55866003558351928352820152a26001805580f35b610d1a82600954611474565b6009557fd712a78b2f9284b797100eec2ebcdeef2243a6a6309c729eb45481e9767377c6818551848152a1610ce1565b80610d5591936114e6565b90610cdb565b90505f610cc8565b7f2305a7aa9f1bacc08ec878913363bf92bcd44b7153760139395598009bf82adb8480518381528585820152a160ff60045416610c9257835162461bcd60e51b8152600481018390526015602482015274554e44455246554e4445445f46554c4c5f4d4f444560581b6044820152606490fd5b602492505190637add949f60e11b82526004820152fd5b5034610207578160031936011261020757905490516001600160a01b039091168152602090f35b503461020757816003193601126102075760207f62e78cea01bee320cd4e420270b5ea74000d11b0c9f74754ebdbfc544b05a25891610e51611378565b610e59611417565b600160ff19600254161760025551338152a180f35b5034610207576020366003190112610207578060209260043581526007845220549051908152f35b808334610f4b57610ea636611312565b909391610eb1611378565b6001600160a01b0390610ec7868316151561154e565b16803b15610f475783516323b872dd60e01b81523060048201526001600160a01b0395909516602486015260448501919091528390606490829084905af18015610f3d57610f13578280f35b67ffffffffffffffff8211610f29575281808280f35b634e487b7160e01b83526041600452602483fd5b81513d85823e3d90fd5b8280fd5b50fd5b8234610a4e5780600319360112610a4e57610f67611378565b80546001600160a01b03198116825581906001600160a01b03167f8be0079c531659141344cd1fd0a4f28419497f9722a3daafe3b4186f6b6457e08280a380f35b509034610a4e5781600319360112610a4e57600435602435610fc8611378565b610fd0611417565b81835260209060058252610fe8858520541515611435565b801561106c578284526007825284842054611035578394837fd3a97c1722afa6d99bd1aeff9c0262b4beac014f044a2a145a28aad1f685aff994955260078352818187205551908152a280f35b845162461bcd60e51b815260048101839052601060248201526f12185cda08185b1c9958591e481cd95d60821b6044820152606490fd5b845162461bcd60e51b8152600481018390526016602482015275092dcecc2d8d2c840c6c2e040e8c2c4d8ca40d0c2e6d60531b6044820152606490fd5b50346102075780600319360112610207576024356001600160a01b03811690819003610f47576020928291600435825260068552828220908252845220549051908152f35b503461020757816003193601126102075760209060ff6002541690519015158152f35b5034610207576020366003190112610207576020906111316004356115e0565b9051908152f35b5034610207578160031936011261020757611151611378565b60025460ff8116156111915760ff1916600255513381527f5db9ee0a495bf2e6ff9c91a7834c1ba4fdd244a5e8aa4e537bd38aeae4b073aa90602090a180f35b8151638dfc202b60e01b8152600490fd5b5034610207578160031936011261020757517f00000000000000000000000000000000000000000000000000000000000000006001600160a01b03168152602090f35b50346102075781600319360112610207576020906009549051908152f35b5034610207576020366003190112610207576004359060ff8216809203610f475761122c611378565b611234611417565b81158015611283575b15611251575060ff19600454161760045580f35b5162461bcd60e51b815260206004820152600c60248201526b496e76616c6964206d6f646560a01b6044820152606490fd5b506001821461123d565b50346102075760203660031901126102075760ff816020936004358152600a855220541690519015158152f35b5034610207578160031936011261020757602090600b549051908152f35b8390346102075781600319360112610207576020907f00000000000000000000000000000000000000000000000000000000000000008152f35b6060906003190112610203576001600160a01b0390600435828116810361020357916024359081168103610203579060443590565b9181601f840112156102035782359167ffffffffffffffff8311610203576020808501948460051b01011161020357565b5f546001600160a01b0316330361138b57565b60405163118cdaa760e01b8152336004820152602490fd5b5f1981146113b15760010190565b634e487b7160e01b5f52601160045260245ffd5b6060810190811067ffffffffffffffff8211176113e157604052565b634e487b7160e01b5f52604160045260245ffd5b90601f8019910116810190811067ffffffffffffffff8211176113e157604052565b60ff6002541661142357565b60405163d93c066560e01b8152600490fd5b1561143c57565b60405162461bcd60e51b815260206004820152601060248201526f125b9d985b1a59081cdb985c1cda1bdd60821b6044820152606490fd5b919082018092116113b157565b905f602091828151910182855af1156114db575f513d6114d257506001600160a01b0381163b155b6114b05750565b604051635274afe760e01b81526001600160a01b039091166004820152602490fd5b600114156114a9565b6040513d5f823e3d90fd5b919082039182116113b157565b600260015414611504576002600155565b604051633ee5aeb560e01b8152600490fd5b91908110156115265760051b0190565b634e487b7160e01b5f52603260045260245ffd5b356001600160a01b03811681036102035790565b1561155557565b60405162461bcd60e51b8152602060048201526011602482015270125b9d985b1a59081c9958da5c1a595b9d607a1b6044820152606490fd5b60405163a9059cbb60e01b60208201526001600160a01b039092166024830152604480830193909352918152608081019167ffffffffffffffff8311828410176113e1576115de92604052611481565b565b5f52600560205260405f20611627604051916115fb836113c5565b6001815491828552015467ffffffffffffffff90818116602086015260401c1660408401521515611435565b519056fea26469706673582212200c05e2797e7e45bee477aa231d961337c32e09e9c196c861407ddf2f347abc2664736f6c63430008140033","linkReferences":{}},"methodIdentifiers":{"activePartition()":"0080a831","currentCycleFunded()":"cfa83b43","currentDistributionMode()":"ab11c1b5","distribute(uint256)":"91c05b0b","distributeBatch(uint256,address[],uint256[])":"b9b344ec","distributionMode()":"040e7bff","emergencyWithdraw()":"db2e21bc","fund(uint256)":"ca1d209d","fundedAmount()":"820a5f50","lastDistributedSnapshotId()":"0a6cb8b7","nextSnapshotId()":"ed2655cf","owner()":"8da5cb5b","pause()":"8456cb59","paused()":"5c975abb","renounceOwnership()":"715018a6","requiredAmount(uint256)":"54de7b29","rescueERC20(address,address,uint256)":"b2118a8d","rescueERC721(address,address,uint256)":"7df325e1","securityToken()":"b84dfbd2","setMode(uint8)":"21175b4a","setSnapshotHash(uint256,bytes32)":"6a328dee","snapshot()":"9711715a","snapshotBalances(uint256,address)":"69802138","snapshotDistributed(uint256)":"1702f3bc","snapshotHashes(uint256)":"7e57e399","snapshots(uint256)":"d6565a2d","totalResidual()":"27161429","transferOwnership(address)":"f2fde38b","unpause()":"3f4ba83a","usdc()":"3e413bee","withdrawResidual(uint256)":"d08a8c3b"},"id":33}