{"abi":[{"type":"constructor","inputs":[],"stateMutability":"nonpayable"},{"type":"function","name":"MAX_DAY","inputs":[],"outputs":[{"name":"","type":"uint256","internalType":"uint256"}],"stateMutability":"view"},{"type":"function","name":"MIN_DAY","inputs":[],"outputs":[{"name":"","type":"uint256","internalType":"uint256"}],"stateMutability":"view"},{"type":"function","name":"batchCommitLogRoots","inputs":[{"name":"days_","type":"uint256[]","internalType":"uint256[]"},{"name":"roots","type":"bytes32[]","internalType":"bytes32[]"}],"outputs":[],"stateMutability":"nonpayable"},{"type":"function","name":"commitLogRoot","inputs":[{"name":"day","type":"uint256","internalType":"uint256"},{"name":"root","type":"bytes32","internalType":"bytes32"}],"outputs":[],"stateMutability":"nonpayable"},{"type":"function","name":"committedDaysCount","inputs":[],"outputs":[{"name":"","type":"uint256","internalType":"uint256"}],"stateMutability":"view"},{"type":"function","name":"dailyRoots","inputs":[{"name":"","type":"uint256","internalType":"uint256"}],"outputs":[{"name":"","type":"bytes32","internalType":"bytes32"}],"stateMutability":"view"},{"type":"function","name":"getCommittedDaysCount","inputs":[],"outputs":[{"name":"","type":"uint256","internalType":"uint256"}],"stateMutability":"view"},{"type":"function","name":"hasRoot","inputs":[{"name":"day","type":"uint256","internalType":"uint256"}],"outputs":[{"name":"exists","type":"bool","internalType":"bool"}],"stateMutability":"view"},{"type":"function","name":"owner","inputs":[],"outputs":[{"name":"","type":"address","internalType":"address"}],"stateMutability":"view"},{"type":"function","name":"renounceOwnership","inputs":[],"outputs":[],"stateMutability":"nonpayable"},{"type":"function","name":"transferOwnership","inputs":[{"name":"newOwner","type":"address","internalType":"address"}],"outputs":[],"stateMutability":"nonpayable"},{"type":"event","name":"LogRootCommitted","inputs":[{"name":"day","type":"uint256","indexed":true,"internalType":"uint256"},{"name":"root","type":"bytes32","indexed":true,"internalType":"bytes32"},{"name":"timestamp","type":"uint256","indexed":false,"internalType":"uint256"}],"anonymous":false},{"type":"event","name":"LogRootUpdated","inputs":[{"name":"day","type":"uint256","indexed":true,"internalType":"uint256"},{"name":"oldRoot","type":"bytes32","indexed":true,"internalType":"bytes32"},{"name":"newRoot","type":"bytes32","indexed":true,"internalType":"bytes32"},{"name":"timestamp","type":"uint256","indexed":false,"internalType":"uint256"}],"anonymous":false},{"type":"event","name":"OwnershipTransferred","inputs":[{"name":"previousOwner","type":"address","indexed":true,"internalType":"address"},{"name":"newOwner","type":"address","indexed":true,"internalType":"address"}],"anonymous":false},{"type":"error","name":"OwnableInvalidOwner","inputs":[{"name":"owner","type":"address","internalType":"address"}]},{"type":"error","name":"OwnableUnauthorizedAccount","inputs":[{"name":"account","type":"address","internalType":"address"}]}],"bytecode":{"object":"0x60808060405234610078573315610063575f8054336001600160a01b03198216811783556040519290916001600160a01b0316907f8be0079c531659141344cd1fd0a4f28419497f9722a3daafe3b4186f6b6457e09080a36106e0908161007d8239f35b631e4fbdf760e01b81525f6004820152602490fd5b5f80fdfe604060808152600480361015610013575f80fd5b5f91823560e01c806335b42b91146104935780636555a75a14610474578063715018a614610417578063772a5df6146103ef5780637b1aa7de146103d0578063810ad0a51461035b5780638da5cb5b146103a8578063a7737c751461037e578063b74250091461035b578063ba6a0e05146101265763f2fde38b14610096575f80fd5b34610122576020366003190112610122576001600160a01b0382358181169391929084900361011e576100c76105a8565b831561010857505082546001600160a01b0319811683178455167f8be0079c531659141344cd1fd0a4f28419497f9722a3daafe3b4186f6b6457e08380a380f35b51631e4fbdf760e01b8152908101849052602490fd5b8480fd5b8280fd5b503461012257806003193601126101225767ffffffffffffffff91803583811161011e576101579036908301610573565b9093602435908111610357576101709036908401610573565b91909261017b6105a8565b82820361030a5781156102c757606482116102845750855b81811061019e578680f35b806101ad610241928489610686565b356101b9828688610686565b3590630134d6e581101580610276575b6101d2906105d3565b6101dd821515610618565b808a526001906020828152898c20928484549485155f14610246575050827f5c36ed4827e4fb8e0550e1f77dc5274084033bd5f26051269ea6d489fb6b96909394508d528152838a8d205560026102348154610664565b90558951428152a3610664565b610193565b7fa38b8973670ef44bb3a734403fba42b8461b890b4f47b2c0fbfc2a163ba0dc46939250558a51428152a4610664565b506301404cff8111156101c9565b606490602086519162461bcd60e51b8352820152601960248201527f4c6f67416e63686f723a20746f6f206d616e7920726f6f7473000000000000006044820152fd5b606490602086519162461bcd60e51b8352820152601760248201527f4c6f67416e63686f723a20656d707479206172726179730000000000000000006044820152fd5b608490602086519162461bcd60e51b8352820152602160248201527f4c6f67416e63686f723a20617272617973206c656e677468206d69736d6174636044820152600d60fb1b6064820152fd5b8580fd5b83823461037a578160031936011261037a576020906002549051908152f35b5080fd5b50903461012257602036600319011261012257602092829135815260018452205415159051908152f35b83823461037a578160031936011261037a57905490516001600160a01b039091168152602090f35b83823461037a578160031936011261037a57602090516301404cff8152f35b5090346101225760203660031901126101225760209282913581526001845220549051908152f35b83346104715780600319360112610471576104306105a8565b80546001600160a01b03198116825581906001600160a01b03167f8be0079c531659141344cd1fd0a4f28419497f9722a3daafe3b4186f6b6457e08280a380f35b80fd5b83823461037a578160031936011261037a5760209051630134d6e58152f35b50903461012257816003193601126101225735602435916104b26105a8565b630134d6e582101580610565575b6104c9906105d3565b6104d4831515610618565b81845260016020528084208381549182155f146105345750505060207f5c36ed4827e4fb8e0550e1f77dc5274084033bd5f26051269ea6d489fb6b969091838652600182528481872055610529600254610664565b60025551428152a380f35b926020917fa38b8973670ef44bb3a734403fba42b8461b890b4f47b2c0fbfc2a163ba0dc469395945551428152a480f35b506301404cff8211156104c0565b9181601f840112156105a45782359167ffffffffffffffff83116105a4576020808501948460051b0101116105a457565b5f80fd5b5f546001600160a01b031633036105bb57565b60405163118cdaa760e01b8152336004820152602490fd5b156105da57565b60405162461bcd60e51b81526020600482015260166024820152754c6f67416e63686f723a20696e76616c69642064617960501b6044820152606490fd5b1561061f57565b60405162461bcd60e51b815260206004820152601e60248201527f4c6f67416e63686f723a20726f6f742063616e6e6f74206265207a65726f00006044820152606490fd5b5f1981146106725760010190565b634e487b7160e01b5f52601160045260245ffd5b91908110156106965760051b0190565b634e487b7160e01b5f52603260045260245ffdfea2646970667358221220296c5ed693e58a5885baa0839629bfccb657269e1f5b6c520244f3aa9787f27664736f6c63430008140033","linkReferences":{}},"methodIdentifiers":{"MAX_DAY()":"7b1aa7de","MIN_DAY()":"6555a75a","batchCommitLogRoots(uint256[],bytes32[])":"ba6a0e05","commitLogRoot(uint256,bytes32)":"35b42b91","committedDaysCount()":"b7425009","dailyRoots(uint256)":"772a5df6","getCommittedDaysCount()":"810ad0a5","hasRoot(uint256)":"a7737c75","owner()":"8da5cb5b","renounceOwnership()":"715018a6","transferOwnership(address)":"f2fde38b"},"id":21}