{"abi":[{"type":"constructor","inputs":[],"stateMutability":"nonpayable"},{"type":"function","name":"MAX_DAY","inputs":[],"outputs":[{"name":"","type":"uint256","internalType":"uint256"}],"stateMutability":"view"},{"type":"function","name":"MIN_DAY","inputs":[],"outputs":[{"name":"","type":"uint256","internalType":"uint256"}],"stateMutability":"view"},{"type":"function","name":"batchCommitLogRoots","inputs":[{"name":"days_","type":"uint256[]","internalType":"uint256[]"},{"name":"roots","type":"bytes32[]","internalType":"bytes32[]"}],"outputs":[],"stateMutability":"nonpayable"},{"type":"function","name":"commitLogRoot","inputs":[{"name":"day","type":"uint256","internalType":"uint256"},{"name":"root","type":"bytes32","internalType":"bytes32"}],"outputs":[],"stateMutability":"nonpayable"},{"type":"function","name":"dailyRoots","inputs":[{"name":"","type":"uint256","internalType":"uint256"}],"outputs":[{"name":"","type":"bytes32","internalType":"bytes32"}],"stateMutability":"view"},{"type":"function","name":"getCommittedDaysCount","inputs":[],"outputs":[{"name":"count","type":"uint256","internalType":"uint256"}],"stateMutability":"view"},{"type":"function","name":"hasRoot","inputs":[{"name":"day","type":"uint256","internalType":"uint256"}],"outputs":[{"name":"exists","type":"bool","internalType":"bool"}],"stateMutability":"view"},{"type":"function","name":"owner","inputs":[],"outputs":[{"name":"","type":"address","internalType":"address"}],"stateMutability":"view"},{"type":"function","name":"renounceOwnership","inputs":[],"outputs":[],"stateMutability":"nonpayable"},{"type":"function","name":"transferOwnership","inputs":[{"name":"newOwner","type":"address","internalType":"address"}],"outputs":[],"stateMutability":"nonpayable"},{"type":"event","name":"LogRootCommitted","inputs":[{"name":"day","type":"uint256","indexed":true,"internalType":"uint256"},{"name":"root","type":"bytes32","indexed":true,"internalType":"bytes32"},{"name":"timestamp","type":"uint256","indexed":false,"internalType":"uint256"}],"anonymous":false},{"type":"event","name":"LogRootUpdated","inputs":[{"name":"day","type":"uint256","indexed":true,"internalType":"uint256"},{"name":"oldRoot","type":"bytes32","indexed":true,"internalType":"bytes32"},{"name":"newRoot","type":"bytes32","indexed":true,"internalType":"bytes32"},{"name":"timestamp","type":"uint256","indexed":false,"internalType":"uint256"}],"anonymous":false},{"type":"event","name":"OwnershipTransferred","inputs":[{"name":"previousOwner","type":"address","indexed":true,"internalType":"address"},{"name":"newOwner","type":"address","indexed":true,"internalType":"address"}],"anonymous":false},{"type":"error","name":"OwnableInvalidOwner","inputs":[{"name":"owner","type":"address","internalType":"address"}]},{"type":"error","name":"OwnableUnauthorizedAccount","inputs":[{"name":"account","type":"address","internalType":"address"}]}],"bytecode":{"object":"0x60808060405234610078573315610063575f8054336001600160a01b03198216811783556040519290916001600160a01b0316907f8be0079c531659141344cd1fd0a4f28419497f9722a3daafe3b4186f6b6457e09080a36106fe908161007d8239f35b631e4fbdf760e01b81525f6004820152602490fd5b5f80fdfe604060808152600480361015610013575f80fd5b5f91823560e01c806335b42b91146104bf5780636555a75a146104a0578063715018a614610443578063772a5df61461041b5780637b1aa7de146103fc578063810ad0a5146103985780638da5cb5b1461036c578063a7737c7514610342578063ba6a0e051461011b5763f2fde38b1461008b575f80fd5b34610117576020366003190112610117576001600160a01b03823581811693919290849003610113576100bc6105c6565b83156100fd57505082546001600160a01b0319811683178455167f8be0079c531659141344cd1fd0a4f28419497f9722a3daafe3b4186f6b6457e08380a380f35b51631e4fbdf760e01b8152908101849052602490fd5b8480fd5b8280fd5b503461011757806003193601126101175767ffffffffffffffff9180358381116101135761014c9036908301610591565b909360243590811161033e576101659036908401610591565b9190926101706105c6565b8282036102f15781156102ae576064821161026b5750855b818110610193578680f35b806101a26102289284896106a4565b356101ae8286886106a4565b3590630134d6e58110158061025d575b6101c7906105f1565b6101d2821515610636565b808a526001906020828152898c20928484549485155f1461022d575050827f5c36ed4827e4fb8e0550e1f77dc5274084033bd5f26051269ea6d489fb6b96909394508d528152838a8d20558951428152a3610682565b610188565b7fa38b8973670ef44bb3a734403fba42b8461b890b4f47b2c0fbfc2a163ba0dc46939250558a51428152a4610682565b506301404cff8111156101be565b606490602086519162461bcd60e51b8352820152601960248201527f4c6f67416e63686f723a20746f6f206d616e7920726f6f7473000000000000006044820152fd5b606490602086519162461bcd60e51b8352820152601760248201527f4c6f67416e63686f723a20656d707479206172726179730000000000000000006044820152fd5b608490602086519162461bcd60e51b8352820152602160248201527f4c6f67416e63686f723a20617272617973206c656e677468206d69736d6174636044820152600d60fb1b6064820152fd5b8580fd5b50903461011757602036600319011261011757602092829135815260018452205415159051908152f35b838234610394578160031936011261039457905490516001600160a01b039091168152602090f35b5080fd5b8382346103945781600319360112610394578190630134d6e55b6301404cff8111156103c8576020838351908152f35b8084526001602052818420546103e7575b6103e290610682565b6103b2565b916103f46103e291610682565b9290506103d9565b838234610394578160031936011261039457602090516301404cff8152f35b5090346101175760203660031901126101175760209282913581526001845220549051908152f35b833461049d578060031936011261049d5761045c6105c6565b80546001600160a01b03198116825581906001600160a01b03167f8be0079c531659141344cd1fd0a4f28419497f9722a3daafe3b4186f6b6457e08280a380f35b80fd5b83823461039457816003193601126103945760209051630134d6e58152f35b50903461011757816003193601126101175735602435916104de6105c6565b630134d6e582101580610583575b6104f5906105f1565b610500831515610636565b81845260016020528084208381549182155f146105525750505060207f5c36ed4827e4fb8e0550e1f77dc5274084033bd5f26051269ea6d489fb6b96909183865260018252848187205551428152a380f35b926020917fa38b8973670ef44bb3a734403fba42b8461b890b4f47b2c0fbfc2a163ba0dc469395945551428152a480f35b506301404cff8211156104ec565b9181601f840112156105c25782359167ffffffffffffffff83116105c2576020808501948460051b0101116105c257565b5f80fd5b5f546001600160a01b031633036105d957565b60405163118cdaa760e01b8152336004820152602490fd5b156105f857565b60405162461bcd60e51b81526020600482015260166024820152754c6f67416e63686f723a20696e76616c69642064617960501b6044820152606490fd5b1561063d57565b60405162461bcd60e51b815260206004820152601e60248201527f4c6f67416e63686f723a20726f6f742063616e6e6f74206265207a65726f00006044820152606490fd5b5f1981146106905760010190565b634e487b7160e01b5f52601160045260245ffd5b91908110156106b45760051b0190565b634e487b7160e01b5f52603260045260245ffdfea2646970667358221220dded5840ed1a54da057e09241990ee78c072e42b8434662fc5aea150d3b069d864736f6c63430008140033","linkReferences":{}},"methodIdentifiers":{"MAX_DAY()":"7b1aa7de","MIN_DAY()":"6555a75a","batchCommitLogRoots(uint256[],bytes32[])":"ba6a0e05","commitLogRoot(uint256,bytes32)":"35b42b91","dailyRoots(uint256)":"772a5df6","getCommittedDaysCount()":"810ad0a5","hasRoot(uint256)":"a7737c75","owner()":"8da5cb5b","renounceOwnership()":"715018a6","transferOwnership(address)":"f2fde38b"},"id":38}